:020000040800F2
:10000000981200209D010008711800086D16000864
:1000100047170008B50500088D27000800000000FC
:100020000000000000000000000000008320000825
:10003000351500080000000051190008492100088A
:10004000B7010008B7010008B7010008B7010008B0
:10005000B7010008B7010008B7010008B7010008A0
:10006000B7010008B7010008B7010008B701000890
:10007000B7010008B7010008B7010008B701000880
:10008000B7010008B7010008B7010008B701000870
:10009000B9050008B7010008B7010008B70100085A
:1000A000B7010008B7010008B7010008B701000850
:1000B000D1210008B7010008B7010008B701000806
:1000C000B7010008B7010008B7010008D11F0008F8
:1000D00021200008B7010008B701000885250008A5
:1000E000B7010008B7010008B7010008B701000810
:1000F000B7010008B7010008000000000000000080
:100100000000000000000000F9210008B70100080D
:100110000000000000000000B7010008B70100085F
:10012000C9140008ED14000811150008B7010008F3
:10013000B7010008B7010008911D00088D1E0008D6
:10014000B7010008000000000000000000000000EF
:10015000000000000000000000000000000000009F
:100160000000000000000000B7010008B70100080F
:10017000B701000800000000B701000800000000FF
:1001800000000000B7010008DFF80CD000F0B6F95D
:1001900000480047152900089812002006488047AB
:1001A00006480047FEE7FEE7FEE7FEE7FEE7FEE75C
:1001B000FEE7FEE7FEE7FEE751210008890100089F
:1001C0002DE9FE4F81EA030404F0004421F00041D0
:1001D00000944FF0000B23F0004350EA01045ED07E
:1001E00052EA03045BD0C3F30A54C1F30A552C440A
:1001F000A4F2F3340194A0FB0254C1F3130141F4BF
:100200008011C3F3130343F4801301FB024400FB8A
:10021000034E840A970A44EA815447EA8357A4FBB1
:10022000076802958D0A05FB07854FEA932C04FBAE
:100230000C542705029D4FEA065847EA1637B5EBDE
:1002400008056EEB070C870E920E47EA811742EA0B
:100250008312A7FB0201B6EB0B0164EB00042B0D2C
:1002600043EA0C335E1844EB1C50DA465146E7FB78
:100270000201C5F313044FEA0B3343EA14534FEA68
:100280000432019C43EA0603A4F10C040294009C8E
:10029000CDE900B400F0E4F803B0BDE8F08F002031
:1002A0000146F9E72DE9F04D81EA030404F0004B23
:1002B00021F0004514464FF0000A23F0004150EAB7
:1002C000050220D054EA01021DD0C5F30A570246A8
:1002D000C5F31303C1F31300C1F30A5640F48015AC
:1002E00043F48013A7EB0608101BD64608F2FD382E
:1002F00073EB050002D308F1010801E092185B419D
:10030000B8F1000F03DA00200146BDE8F08D0020AF
:100310004FF48011064684460EE0171B73EB050769
:1003200005D3121B63EB050306434CEA010C490895
:100330004FEA300092185B4150EA0107EDD152EAD2
:10034000030012D082EA040083EA0501084305D0C5
:10035000101BAB4106D20122002306E000224FF021
:10036000004302E06FF0010253101AEB06004CEB61
:10037000085110EB0A0041EB0B01BDE8F04D00F015
:1003800060B80EB540F2334102910021CDE9001171
:100390000A460B4600F064F803B000BD01F00043CC
:1003A00030B421F0004150EA010206D00A0DA2F556
:1003B0006072C1F31301002A02DC30BC00207047D8
:1003C000440F44EAC104C100E01830BC00EBC25045
:1003D000AFF300800029A8BF7047401C490008BF48
:1003E00020F00100704710B4B0FA80FC00FA0CF065
:1003F00050EA010404BF10BC704749B1CCF120049D
:1004000021FA04F411FA0CF118BF01212143084329
:10041000A3EB0C01CB1D4FEA00614FEA102042BF55
:10042000002010BC704700EBC35010440029A4BF4B
:1004300010BC7047401C490008BF20F0010010BCF0
:10044000704710B5141E73F1000408DA401C41F126
:10045000000192185B411A4301D120F0010010BD48
:100460002DE9F04D92469B4611B1B1FA81F202E0BE
:10047000B0FA80F22032904600F052F804460F465F
:1004800040EA0A0041EA0B0153465A46084313D09A
:10049000114653EA010019D0C8F14002504600F05D
:1004A0004EF805460E4650465946424600F038F88A
:1004B000084305D0012004E020463946BDE8F08D10
:1004C0000020054346EAE0762C4337430A9863054B
:1004D000E40AA0EB08000022FD0A44EA47540A306F
:1004E00002D500200146E9E7010510196941DDE95F
:1004F000084500196941BDE8F04DA2E7064C074DDB
:1005000006E0E06840F0010394E8070098471034E3
:10051000AC42F6D3FFF73CFE202D0008402D00082A
:10052000202A04DB203A00FA02F1002070479140B3
:10053000C2F1200320FA03F3194390407047202AA8
:1005400004DB203A21FA02F00021704721FA02F37D
:10055000D040C2F12002914008431946704770B55F
:100560008C1810F8015B15F0070301D110F8013B5E
:100570002A1106D110F8012B03E010F8016B01F8E5
:10058000016B5B1EF9D12B0705D40023521E0DD43D
:1005900001F8013BFAE710F8013BCB1A921C03E08B
:1005A00013F8015B01F8015B521EF9D5A142D8D3C3
:1005B000002070BD00BFFEE710B5074800F012F83C
:1005C00006480068052803D101200549087002E0AB
:1005D00000200349087010BD72010020A80D002002
:1005E0007101002070B505460021154800F0D7F9CB
:1005F00008B9002070BD134A0021114800F0DEF94F
:100600001048006811280CD1002405E00D480B307B
:10061000005D0D490855641C0A48807AA042F5D84F
:100620000AE0002404E007480B30005D2855641CF4
:100630000448807AA042F6D80248807ADAE70000BF
:1006400000640040A80D00201000002000B58BB011
:100650000121080501F0B6F907220021394800F010
:10066000D9FF07220121374800F0D4FF0320099069
:1006700002208DF8280003208DF8290000208DF835
:100680002A0001208DF82B0009A92E4800F07AFFDE
:1006900014208DF8200001208DF8210000208DF815
:1006A000220001208DF8230008A801F0E3F80121C1
:1006B000480601F097F9244800F048F805A800F032
:1006C000F5F900208DF81A0001208DF81B0000209C
:1006D0008DF81C008DF81D008DF81E008DF81F0090
:1006E0008DF816008DF8170003208DF818000120F2
:1006F0008DF819000820ADF8140005A9124800F083
:10070000C4F800208DF80E008DF80F0001208DF840
:1007100010000020ADF80400ADF80600ADF80800A8
:10072000ADF80A00ADF80C0001208DF8110001A809
:1007300000F01EF801220221034800F09DF80BB0E2
:1007400000BD0000000C00480064004010B50446E5
:100750000648844208D10121480601F053F90021DE
:100760004FF0007001F04EF910BD00000064004031
:1007700010B50021837A012202FA03F13D4A126882
:1007800042F001023B4B1A603A4A1C3212688A431B
:10079000384B1C331A60027BCAB9364A0C321268D5
:1007A0008A43344B0C331A604288C38842EA0343BD
:1007B000304A4032847A42F834300288838842EAF0
:1007C00003432C4A4032847A02EBC4025360027B1A
:1007D000012A19D1274A0C3212680A43254B0C33DF
:1007E0001A604288038842EA0343224A4032847AEC
:1007F00042F83430C288838842EA03431D4A4032BB
:10080000847A02EBC4025360C27A3AB9194A121DC3
:1008100012688A43174B1B1D1A6006E0154A121D09
:1008200012680A43134B1B1D1A60028932B9114A20
:10083000143212688A430F4B14331A600289012A5A
:1008400006D10C4A143212680A430A4B14331A6058
:10085000427B012A06D1074A1C3212680A43054B23
:100860001C331A60034A126822F00102014B1A601D
:1008700010BD0000006600401AB143690B4343619C
:1008800002E043698B434361704730B50246002064
:100890000023146824F002041460146844F0010476
:1008A000146000E05B1C546804F001041CB94FF6AE
:1008B000FF74A342F6D1546804F001040CB900207F
:1008C0006CE08C79012C04D1146844F0800414602D
:1008D00003E0146824F080041460CC79012C04D166
:1008E000146844F04004146003E0146824F04004E9
:1008F00014600C7A012C04D1146844F020041460B4
:1009000003E0146824F0200414604C7A012C04D114
:10091000146844F01004146003E0146824F0100418
:1009200014608C7A012C04D1146844F0080414601B
:1009300003E0146824F008041460CC7A012C04D17C
:10094000146844F00404146003E0146824F0040400
:1009500014608C78A407CD7844EA05640D7944EAE4
:1009600005444D7944EA05540D886D1E2C43D4612D
:10097000146824F001041460002300E05B1C546838
:1009800004F001041CB14FF6FF74A342F6D1546881
:1009900004F001040CB1002000E0012030BD02464B
:1009A000002019B9D36803F0030006E0012903D140
:1009B000136903F0030000E00020704710B500F554
:1009C000D87303EB01131B6803F004031372137A4B
:1009D00053B900F5D87303EB01131B6840F2FF74A1
:1009E00004EA5353136009E000F5D87303EB0113D5
:1009F0001B686FF0604404EAD303536000F5D873BA
:100A000003EB01131B6803F00203537200F5D87364
:100A100003EB01135B6803F00F03937200F5D873C7
:100A200003EB01135B681B0AD37400F5D87303EB67
:100A300001139B68D37200F5D87303EB01139B6815
:100A40001C0A147300F5D87303EB01139B681C0C8C
:100A5000547300F5D87303EB01139B681B0E93735B
:100A600000F5D87303EB0113DB68D37300F5D8737B
:100A700003EB0113DB681C0A147400F5D87303EB55
:100A80000113DB681C0C547400F5D87303EB0113DD
:100A9000DB681B0E937421B9C36843F02003C36065
:100AA00003E0036943F02003036110BD002181715D
:100AB000C171017241728172C1728170C170032172
:100AC00001710221417101210180704710B500249C
:100AD0000F49086800F0D2F9052801D1322415E049
:100AE00000200C498884084680780006C97840EACE
:100AF00001400849097940EA01200649497908433B
:100B000040080449C861012081F82600204610BD34
:100B1000240100208C0B00202DE9F0472248D0F85A
:100B2000008006680146086800F0A8F904464FF006
:100B30000009032C03D100F023FD814630E0012C95
:100B400001D0022C2AD11948807800061749C978AB
:100B500040EA01401549097940EA012013494979E1
:100B600040EA0107002512E0012C05D100210846CA
:100B700001F036FE814604E00021084601F008FE3F
:100B80008146761C0021304600F05CFE6D1CBD42A3
:100B9000EAD90021404600F055FE01E04FF032094D
:100BA0004846BDE8F0870000240100208C0B00209F
:100BB000EF2004490870BE204870AD208870DE2008
:100BC000C87070472C0100203020704710B51C48B9
:100BD00090F82740807800021949498840EA11209E
:100BE00080B278B9164890F8270040F08100144987
:100BF00081F82700084690F8270000F0EF0081F800
:100C0000270014E00E4890F8270000F0800070B133
:100C10000B4890F8270040F01000094981F82700A0
:100C2000084690F8270000F07F0081F8270004486C
:100C300090F82710204600F055FA002010BD000063
:100C40008C0B002070B50024214890F827600079B3
:100C500000021F49898840EA112085B295BB1C48D3
:100C60008078A8B91A4890F8270040F01000184979
:100C700081F82700084690F8270000F07F0081F8EF
:100C80002700084690F82710304600F02BFA1DE0A8
:100C90000F488078012816D10D4890F8270000F001
:100CA000DF000B4981F82700084690F8270000F084
:100CB0007F0081F82700084690F82710304600F0A2
:100CC00011FA03E001E0312400E03124204670BD38
:100CD0008C0B002010B503488178032000F02CFC19
:100CE00010BD00008C0B002010B50621022000F082
:100CF00023FC10BD10B524210548C17200210173E9
:100D00004321417300218173024800F09BFD10BD17
:100D10008C0B0020C40A002000210248C160002082
:100D2000704700008C0B002002210348C172012192
:100D300001730020704700008C0B002038B5274855
:100D400080788DF8000000208DF801008DF80200F9
:100D50009DF8000004283ADA9DF801009DF8001083
:100D60001F4A02EB01110978884230DA9DF802002F
:100D70009DF8001002EB01114978884227DA9DF8AE
:100D8000000000F063FB9DF80000154901EB001026
:100D900001781248C1729DF8000000F083FB0F49F2
:100DA00008739DF8001001EB81010E4A02EB8101EE
:100DB0000873009800F0CAFC0446084840689DF893
:100DC000001001EB8101074A42F8210003E00021F5
:100DD0000248C1720024204638BD00008C0B002060
:100DE000C02C00083C0B0020034890F82710C1726B
:100DF00000210173002070478C0B00200021024865
:100E0000C1720020704700008C0B002010B500F06C
:100E100019F800F005F9044981F827000020C8619D
:100E2000086200F083FC10BD8C0B002004490020F8
:100E300003E000220A70491C401C3028F9D3704797
:100E4000780C002010B5FFF7F1FFFFF7B1FE00208E
:100E500007490870022007490870002405E0064889
:100E6000015D04480E300155641C042CF7DB10BDF5
:100E700030010020C40A00202C0100200146B1F1FD
:100E8000005F04D3134A914201D8012020E0B1F160
:100E9000006F04D3104A914201D8032018E0B1F545
:100EA0007E0F04D30D4A914201D8042010E000299E
:100EB00005D340F6FF72914201D2002008E0B1F55F
:100EC000801F04D3064A914201D2022000E005208F
:100ED000704700000040002000000108FF03FE00F2
:100EE000FF01100070B5002412490868FFF7C6FF23
:100EF000054610494868FFF7C1FF0646052D01D099
:100F0000052E01D1322412E00B48807800060A49F0
:100F1000C97840EA01400849097940EA01200649B8
:100F20004979084304490862012081F826002046D7
:100F300070BD0000240100208C0B002010B5034878
:100F40008178032000F006FD10BD00008C0B00200E
:100F500010B50621022000F0FDFC10BD0146087806
:100F60007047000070B5002500244EE0294800EBD2
:100F70000410007B012847D105EB4500264951F8B4
:100F8000200004EB8401254A42F8210005EB4500CE
:100F9000214901EB8000808804EB840102EB810190
:100FA000888005EB45001C4901EB8000807904EB4B
:100FB000840102EB8101887205EB4500164901EBC3
:100FC0008000C07904EB840102EB8101087305EB1A
:100FD0004500114901EB8000007A04EB840102EB2B
:100FE0008101487305EB45000B4901EB8000407A15
:100FF00004EB840102EB8101C873012004EB84013E
:1010000002EB8101C8806D1C641C042CAEDB01F076
:101010008BFB70BDC02C0008780C00203C0B00201E
:1010200001480078704700003001002000200021B6
:101030007047000008B5084880788DF80000064821
:10104000C0788DF80100044800798DF802000098FE
:1010500000F07CFB08BD00008C0B002010B5034A9B
:101060009178506800F0EEFB10BD00008C0B002062
:1010700010B51B4890F8274090F8270000F0B80002
:10108000174981F82700084690F82700897801F071
:1010900047010843124981F8270004F0040004289E
:1010A00009D0084690F8270000F00400042802D177
:1010B00000F0FCF80CE004F00400042808D1084813
:1010C00090F8270000F00400042801D0FFF7AEFEDE
:1010D000034890F82710204600F004F8002010BDC7
:1010E0008C0B002070B506460D4606F0040004285F
:1010F0000DD005F00400042809D1002404E00A48BA
:10110000005D0A490855641C042CF8DB09E006F070
:101110000400042805D105F00400042801D0FFF7DD
:1011200047FD0348057070BDD20A00202C01002045
:1011300030010020F8B50E484668002400250FE075
:101140006946304600F0D4FD0446322C06D09DF8A6
:101150000020E81C064908310A54761C681CC5B2F8
:1011600003488078A84201DD002CE9D02046F8BD74
:101170008C0B002070B500263248C478042C5EDA4F
:10118000204600F0E9FD2F488078012803D02D4843
:101190008078022849D12B4800792B4901EB0411B2
:1011A0000978884201DB322607E02648007904EB03
:1011B0008401264A02EB810148736EBB21484079C5
:1011C00004EB8401214A02EB810188721D48C58825
:1011D000012D06DA012004EB840102EB81018880F5
:1011E00005E004EB8400194901EB8000858004EBE5
:1011F0008400164901EB8000808804EB8401134AC7
:1012000002EB8101C8800F488078012805D104EBEA
:10121000840102EB8101C8730EE0012004EB84011C
:101220000A4A02EB8101087406E0002004EB840105
:10123000064A02EB8101C87301F076FA00E032261B
:10124000304670BD8C0B0020C02C00083C0B0020E9
:1012500010B500241348807898B10FE004EB8400A7
:10126000114901EB8000007C30B1012004EB8401C6
:101270000D4A02EB8101C873601CC4B2042CEDDB83
:101280000BE008E0002004EB8401074A02EB810137
:10129000C873601CC4B2042CF4DB01F045FA0020D2
:1012A00010BD00008C0B00203C0B002010B500216D
:1012B000002048E0254A02EB0012127B012A41D1AE
:1012C00000EB8002224B53F8222001EB4103214C1A
:1012D00044F8232000EB80021D4B03EB820292882E
:1012E00001EB410304EB83039A8000EB8002184B6F
:1012F00003EB8202927A01EB410304EB83039A71C0
:1013000000EB8002124B03EB8202127B01EB4103E4
:1013100004EB8303DA7100EB80020D4B03EB8202D6
:10132000527B01EB410304EB83031A7200EB800252
:10133000074B03EB8202D27B01EB410304EB8303F7
:101340005A72491C401C0428B4DB10BDC02C000894
:101350003C0B0020780C002043210248C172002081
:10136000704700008C0B0020F8B50F480668002578
:1013700003240DE06946304600F0BAFC0546322DE4
:1013800003D09DF8001009480155761C601CC4B2BA
:10139000064808388078C01CA042EBDC00213046AB
:1013A00000F050FA2846F8BD24010020940B0020DC
:1013B0001CB500242148007900062049898801F4E1
:1013C0007F4140EA01201D49496801F47F0140EA5C
:1013D00011201A49496840EA116019490860174804
:1013E00080788DF804009DF80400012808D09DF84D
:1013F0000400022804D09DF80400042800D0322400
:10140000D4B90F48006800900098FFF737FD052811
:1014100001D1322408E000F065FA9DF804108842FA
:1014200002DA00F0EBF9044634B9DDE9000101F01D
:101430000FFA00F0B3F9044620461CBD8C0B0020C7
:101440001C0100200246362070470000F0B5144D04
:1014500005EB00152D78124E06EB0016767815FB7D
:1014600006F5EB1DDD1703EB5575ED100C4E06EB85
:10147000001636780A4F07EB00177F7816FB0755E2
:10148000ACB2074B03EB00135968002204E00023C1
:101490000B80891C531C9AB2A242F8DBF0BD0000FD
:1014A000C02C000802460021002007E0054B03EB9A
:1014B00001131B780344D8B24B1CD9B29142F5DB1F
:1014C00070470000C02C000808B50221054800F054
:1014D0005EFD28B16946034800F062FD02490860DC
:1014E00008BD0000006001406401002008B5022131
:1014F000054800F04CFD28B16946034800F050FD56
:101500000249086008BD0000006001406801002039
:1015100008B50221054800F03AFD28B169460348A4
:1015200000F03EFD0249086008BD00000060014077
:101530006C010020704700002DE9F04104460F4681
:101540000D4805684FF0000826460CE00B48815D09
:10155000002001F045F980466D1C0021284600F06E
:1015600071F9701CC6B2E019B042EFDC0348C560E7
:101570004046BDE8F0810000240100208C0B0020D3
:1015800000207047F0B50A4600210023002400BF68
:101590003DE0012505FA01F3156805EA03049C42C4
:1015A00034D11579012D02D01579022D16D1856817
:1015B0004F000326BE40B543856055794E00B540C7
:1015C000866835438560868801258D40AE438680D8
:1015D000868895798D40ADB22E43868005684F0090
:1015E0000326BE40B543056015794E00B540066838
:1015F00035430560C5684F000326BE40B543C5604E
:10160000D5794E00B540C6683543C560491C1029E0
:10161000BFD3F0BDF0B5002300244D07ED0E02FA54
:1016200005F3CE1000F1200555F826504E07F70EB1
:101630000F26BE40B543CF1000F1200646F82750D4
:10164000CE1000F1200555F8265045EA0304CE10CF
:1016500000F1200545F82640F0BD01857047816105
:1016600070470AB1816100E00185704700BFFEE765
:101670001CB501214FF4481000F0A4F94FF4E040EC
:10168000009001208DF8040000208DF80600032052
:101690008DF8050002208DF8070069461848FFF70D
:1016A00071FF4EF20C00009069461648FFF76AFF82
:1016B0000720009069464FF09040FFF763FF4FF41A
:1016C0000060009000208DF804008DF806000320D3
:1016D0008DF8050001208DF8070069460848FFF7DE
:1016E00051FF4FF4C150009069460648FFF74AFF8A
:1016F0000820009069464FF09040FFF743FF1CBD63
:10170000000C00480010004810B500EB8003064CA8
:1017100004EB8302002103E000231370521C491CD8
:101720001429F9D310BD00003C0B002010B5002493
:1017300004E02046FFF7E8FF601CC4B2042CF8DB8D
:10174000FFF710FC10BD00BFFEE7000001B5002050
:101750009DF8001004291ADA9DF801109DF8002068
:101760000C4B03EB02121278914210DA9DF8021032
:101770009DF8002003EB02125278914207DA0649E5
:10178000BDF800200A809DF802208A7000E0322017
:1017900008BD0000C02C00082001002038B5154805
:1017A000006800909DF80000134901EB001040789C
:1017B000401E9DF80210884210D19DF800000E498D
:1017C00001EB00100078401E9DF80110884201D105
:1017D00000240DE000F012F8044609E09DF8020034
:1017E000401CC0B28DF802000098FFF7AFFF04461E
:1017F000204638BD20010020C02C000838B5002448
:101800000E48006800909DF800000D4901EB0010A3
:101810000078401E9DF80110884201D132240BE06F
:101820009DF80100401CC0B28DF8010000208DF829
:1018300002000098FFF78AFF204638BD20010020F3
:10184000C02C000870B505460C460026022C01DBB2
:10185000322609E02846FFF711FB052801D1322680
:1018600002E0024840F82450304670BD24010020B8
:101870007047000070B5002100230F22C47804B324
:10188000154C246804F4E064C4F5E064210AC1F155
:101890000403CA40447804FA03F1847814402143D5
:1018A00009010E4C0678A155047804F01F050124A7
:1018B000AC4005786D11AD0005F1E025C5F800419B
:1018C00009E0047804F01F050124AC40044D0678BB
:1018D000761145F8264070BD0CED00E000E400E014
:1018E00080E100E03EB51848006802900024002521
:1018F0009DF809109DF808006B46224600F0AAF9F1
:101900000DE09DF809109DF808006B46224600F096
:10191000A1F99DF804002844C5B2601CC4B29DF82A
:10192000040038B19DF80800084901EB0010407828
:10193000A042E6D19DF80800044901EB0010407870
:10194000401BC0B23EBD000020010020C02C00089A
:10195000704700002DE9F04105460E46174807681C
:101960004FF000082C4622E014490868FFF786FA79
:10197000022806D11248015D002000F009FF8046D0
:101980000EE00E490868FFF779FA032806D10C48E3
:10199000015D002000F010FF804601E04FF03208AA
:1019A0007F1C00213846FFF74DFF601CC4B2A81908
:1019B000A042D9DC4046BDE8F081000024010020AF
:1019C0008C0B002029B1064A52690243044B5A612C
:1019D00004E0034A52698243014B5A617047000098
:1019E0000010024029B1064AD2690243044BDA6171
:1019F00004E0034AD2698243014BDA617047000078
:101A00000010024029B1064A12690243044B1A61D0
:101A100004E0034A12698243014B1A6170470000D7
:101A20000010024029B1064AD2680243044BDA6032
:101A300004E0034AD2688243014BDA607047000039
:101A40000010024070B50021002300240025002270
:101A50007A4E766806F00C0121B1042905D00829D8
:101A600021D105E0764E066020E0754E06601DE04F
:101A7000724E766806F47013704E766806F4803401
:101A8000022606EB93431CB96E4E5E43066009E0E6
:101A90006A4EF66A06F00F06751C694EB6FBF5F63F
:101AA0005E43066002E0664E066000BF00BF634E04
:101AB000766806F0F0010909634E725C0668D6404C
:101AC00046605E4E766806F4E061090A5E4E725C1E
:101AD0004668D6408660594E766806F46051C90A59
:101AE000594E725C4668D640C660544E766806F41D
:101AF0004041890B554E725CC668B6FBF2F6066132
:101B00004E4E766806F07841C1F3C361504E725C68
:101B10000668B6FBF2F64661484E366B06F04006A4
:101B2000402E03D048F21206866102E04FF40046D0
:101B30008661424E366B06F01006102E02D0404EE3
:101B4000C66101E00668C6613C4E366B06F02006B1
:101B5000202E02D03A4E066201E006680662374E39
:101B6000366B06F0030616B9C668466219E0334EB6
:101B7000366B06F00306012E02D10668466210E0BD
:101B80002E4E366B06F00306022E02D1B6034662D5
:101B900007E02A4E366B06F00306032E01D1284ECD
:101BA0004662264E366B06F4403616B98668866263
:101BB0001DE0224E366B06F44036B6F5803F02D16A
:101BC0000668866213E01D4E366B06F44036B6F5A5
:101BD000003F03D14FF40046866208E0174E366B93
:101BE00006F44036B6F5403F01D1154E8662134EDD
:101BF000366B06F4402616B98668C6621DE00F4EA5
:101C0000366B06F44026B6F5802F02D10668C66210
:101C100013E00A4E366B06F44026B6F5002F03D1CA
:101C20004FF40046C66208E0044E366B06F44026C8
:101C3000B6F5402F01D1024EC66270BD00100240C1
:101C400000127A0000093D0031010020410100200E
:101C5000450100202DE9F04304460D4616460722B3
:101C600002FB0560DFF8808008EB0418D8F80480D8
:101C7000DFF8749009EB041999F80090C9EBC909D1
:101C800008EB490802464FEAE07900EB59794FEA40
:101C9000E90908EB490C4FEAE07800EB58784FEA85
:101CA000E808A0EBC8084FEA48684FEA1867BCF894
:101CB0000020DFF8388038F8178002EA080139413F
:101CC000094A02EB0412526832F810201A60032904
:101CD00001DA197101E004221A711A6802F1005246
:101CE0001A60BDE8F0830000C02C0008002D000839
:101CF00070B505460C4600262846FFF7BFF80128B8
:101D000002D12878207025E02846FFF7B7F820B9DF
:101D10002846FFF723F920701CE02846FFF7AEF8AD
:101D2000022802D12878207014E02846FFF7A6F890
:101D3000032802D1287820700CE02846FFF79EF88F
:101D4000042806D1A5F57E0000F5805000782070AB
:101D500000E03226304670BD70B5044604EB8400C6
:101D60000A4951F8206004EB840001EB8000057BF8
:101D70002046FFF7C9FC04EB8400044941F82060C9
:101D800004EB840001EB8000057370BD3C0B002068
:101D900000B52DED068B81B002212F4800F0F7F839
:101DA000002854D069462C4800F0FAF82B490880E6
:101DB0000098012804D1084600882949088046E097
:101DC00028490098884204D1244800882449488042
:101DD0003DE025490098884204D1204800882049E8
:101DE000888034E021490098884200D12FE02049C2
:101DF000009888422BD1194800881949C880174992
:101E0000098801F5004188B2FEF7BBFA41EC1A0BD4
:101E10009FED180B53EC102BFEF7D2F941EC190B88
:101E20009FED160B53EC102BFEF73CFA41EC180B10
:101E3000FEF7B4FA134908600121134800F09CF83A
:101E40000021054800F098F80F4800F0BBF801B0F9
:101E5000BDEC068B00BD0000006401401A000020AC
:101E6000BC0D002002000100040002000800030075
:101E700080000700FCA9F1D24D6200400000000084
:101E8000E0FFEF407C0100200068014000B52DED2F
:101E9000068B81B002212C4800F079F800284FD041
:101EA0006946294800F07CF82849088000980128F4
:101EB00004D1084600882649088141E02549009858
:101EC000884204D1214800882149488138E02249CC
:101ED0000098884204D11D4800881D4988812FE060
:101EE0001E49009888422BD1184800881849C8819B
:101EF0001649098801F5004188B2FEF742FA41EC23
:101F00001A0B9FED170B53EC102BFEF759F941EC10
:101F1000190B9FED150B53EC102BFEF7C3F941EC99
:101F2000180BFEF73BFA124908600121114800F036
:101F300023F80021044800F01FF80E4800F042F892
:101F400001B0BDEC068B00BD006801401C00002004
:101F5000BC0D002002000100040002008000070008
:101F6000FCA9F1D24D62004000000000E0FFEF400C
:101F7000800100200064014021B1426842F001026A
:101F8000426003E0426822F001024260704702466C
:101F9000002093680B400BB1012000E00020704747
:101FA00030B502460B460021116E054800EA1120AB
:101FB0000D0E0124AC402043186008B230BD000073
:101FC0000000FFFF416841F400414160704700009C
:101FD00010B50B48008900F0010080B10948007875
:101FE000632804D007480078401C06490870002088
:101FF00000F00CF80449034A127821F8120010BDD1
:102000000030014070010020D00D002070B5054661
:102010000024024800F032F870BD0000003001409A
:1020200010B50E48008800F00100B0B14FF4006117
:102030004FF09040FFF713FB09480078632804D065
:1020400007480078401C06490870002000F00CF892
:102050000449034A127821F8120010BD08380040E4
:1020600070010020D00D002070B505460024024804
:1020700000F004F870BD0000003800400146888977
:10208000704770470CB50020019000902C48006804
:1020900040F480302A49086000BF2948006800F4F5
:1020A000003000900198401C0190009818B90198E8
:1020B000B0F5A06FF1D12248006800F4003010B1F3
:1020C0000120009001E0002000900098012836D106
:1020D00002201C4908601A484068194948600846AF
:1020E000406848600846406840F4806048600846A0
:1020F000406820F47C1048600846406840F4A8100E
:1021000048600846006840F08070086000BF0C48D6
:10211000006800F000700028F9D00948406820F0FD
:102120000300074948600846406840F002004860E4
:1021300000BF0348406800F00C000828F9D10CBD2E
:10214000001002400020024010B500F00FFA10BD50
:1021500010B51B48006840F4700019490860194820
:10216000006840F00100174908600846406800F424
:102170007F0048600846006813490840114908601C
:102180000846006820F4802008600846406820F473
:10219000FE0048600846C06A20F00F00C86208468A
:1021A000006B0A4908400749086300208860FFF770
:1021B00069FF4FF0006002498039086010BD0000DF
:1021C00088ED00E000100240FFFFF6FE8C0FFF0FCD
:1021D00010B50221480700F0FDF850B10120054973
:1021E00008700221800700F01EF80121880700F026
:1021F00017F810BD5C01002010B50221074800F05F
:10220000E9F848B100F078FC0221044800F00BF82E
:102210000121024800F004F810BD0000000C00404D
:10222000CA4302827047CA430282704721B10288C2
:1022300042F00102028004E002884FF6FE731A4069
:102240000280704710B50446B4F1804F08D10121D7
:102250000846FFF7D7FB00210120FFF7D3FB9EE0E4
:102260004F48844208D101210220FFF7CBFB002117
:102270000220FFF7C7FB92E04A48844208D10121BF
:102280000420FFF7BFFB00210420FFF7BBFB86E023
:102290004548844208D101210820FFF7B3FB002103
:1022A0000820FFF7AFFB7AE04048844208D10121C3
:1022B0001020FFF7A7FB00211020FFF7A3FB6EE023
:1022C0003B48844208D101212020FFF79BFB0021DD
:1022D0002020FFF797FB62E03648844208D10121B5
:1022E0004020FFF78FFB00214020FFF78BFB56E0DB
:1022F0003148844208D101218020FFF783FB00216F
:102300008020FFF77FFB4AE02C48844208D101215E
:102310008015FFF777FB0021A015FFF773FB3EE068
:102320002748844209D101210804FFF77BFB0021E3
:102330004FF48030FFF776FB31E02248844209D128
:1023400001214804FFF76EFB00214FF40030FFF736
:1023500069FB24E01C48844209D101218804FFF76D
:1023600061FB00214FF48020FFF75CFB17E017486A
:10237000844208D101214015FFF744FB002160157C
:10238000FFF740FB0BE01248844208D10121C8044A
:10239000FFF748FB00214FF40020FFF743FB10BD7F
:1023A0000004004000080040000C00400010004005
:1023B0000014004000180040001C004000200040B5
:1023C000004001400044014000480140009C0040A2
:1023D000005C014030B50246002000230024158A2D
:1023E00005EA0103958905EA010413B10CB1012046
:1023F00000E0002030BD1AB183890B43838102E0E5
:1024000083898B438381704700220288B0F1804F1B
:102410000BD0194B984208D0184B984205D0184B56
:10242000984202D0174B984204D14FF68F731A404E
:102430004B881A43144B98420AD0144B984207D049
:10244000134B984204D04FF6FF431A400B891A43AE
:1024500002804B68C3620B8803850E4B984205D0FF
:102460000D4B984202D00D4B984201D18B7A0386D6
:1024700001238382704700000004004000080040F0
:10248000000C0040005C01400010004000140040BF
:10249000009C0040004001400044014000480140D1
:1024A0001FB501210920FFF79DFA4FF08040FFF78B
:1024B000C9FE2820019040F29F50ADF80000002096
:1024C000ADF80800ADF8020069464FF08040FFF714
:1024D0009BFF01218807FFF7A3FE01220221480785
:1024E000FFF789FF01218807FFF7A0FE1C208DF868
:1024F0000C0001208DF80D0000208DF80E00012049
:102500008DF80F0003A8FFF7B5F91748FFF79AFEFB
:102510000420019040F29F50ADF800000020ADF87B
:102520000800ADF8020069460F48FFF76DFF012172
:102530000D48FFF775FE012202210B48FFF75BFFF4
:1025400001210948FFF772FE32208DF80C000220AD
:102550008DF80D0001208DF80E008DF80F0003A8F6
:10256000FFF788F91FBD0000000C00400448006818
:1025700020B103480068401E014908607047000010
:102580000000002010B53249324800F085F80028DC
:102590004FD044F62060304908602D492D4800F0A6
:1025A00069F82C4800F0BAF8C4B22C48007830B969
:1025B000072C01D0092C02D1012029490870284894
:1025C0000078012835D1234800F0A8F82549234A8E
:1025D0001278885408464078102807D11F480078A0
:1025E000062803D10D20204908700EE01D484078D0
:1025F000032803D108201C49087006E019484078D8
:10260000062802D108201849087014480078401C98
:1026100012490870084600781349097890FBF1F2D6
:1026200001FB120028B901201049087000200B4955
:1026300008700821074800F026F8012806D1082173
:10264000044800F015F8034800F068F810BD0000D9
:1026500005010500004800406001002058010020ED
:102660005A010020A80C00205B0100205D01002021
:102670000162704710B5002200230A0C012404FAFD
:1026800002F3036210BD02460020D3690B400BB178
:10269000012000E00020704770B502460B46002480
:1026A000002100250020C3F30725D9B2012606FA30
:1026B00001F1012D02D11668314006E0022D02D150
:1026C0005668314001E0966831401C0C012606FA3C
:1026D00004F4D669344011B10CB1012000E00020AF
:1026E00070BDF0B5034600240026002500201846E2
:1026F000C1F30724CEB2012707FA06F5022C01D157
:10270000001D02E0032C00D108301AB107682F43E6
:10271000076002E00768AF430760F0BD0146888CA0
:10272000C0F308007047000070B50024154890F809
:10273000276000250AE004EB8400134901EB8000C8
:10274000C07B08B1012501E0601CC4B20DB9042CA6
:10275000F1DB45B10B4890F8270040F02000094913
:1027600081F8270007E0074890F8270000F0DF0015
:10277000044981F82700034890F827103046FEF7F7
:10278000B1FC70BD8C0B00203C0B002000BFFEE7AD
:1027900070B504460E460025022C01DB322507E009
:1027A000044951F82400FEF769FB022800D03225C5
:1027B000284670BD2401002070B504460E46002551
:1027C000022C01DB322507E0044951F82400FEF712
:1027D00055FB032800D03225284670BD2401002077
:1027E00070B504460D460026022C01DB32262AE095
:1027F000164951F82400FEF741FB012804D1134883
:1028000050F8240005701EE0104951F82400FEF72E
:1028100035FB042808D10D4850F82400A0F57E00AF
:1028200000F5805005700EE0084951F82400FEF7CD
:1028300025FB38B9054951F824002946FEF702FE68
:10284000064600E03226304670BD0000240100201C
:10285000F3B5264D2978AD78254E06EB011676782E
:10286000224F7F7816FB0755A8B29DF804500DB98A
:10287000002501E0009DADB21D4E06EB0116766805
:1028800026F810501A4E06EB01167678184F07EB13
:1028900001173F7816FB07F6154F07EB01177F6806
:1028A00007EB46060546C71700EB5777FF1006EB08
:1028B0004702C61700EB5676F610A0EBC606760662
:1028C000340E9DF80450032D02DA9DF8043000E028
:1028D000032315880326A640B5431580158803FAFF
:1028E00004F6B6B235431580FCBD0000200100207F
:1028F000C02C000802E008C8121F08C1002AFAD143
:1029000070477047002001E001C1121F002AFBD16F
:102910007047000090B09FED610A8DED030A9FEDB6
:102920005F0A8DED020A9FED5D0A8DED010A00BF81
:1029300000205B4908705B4908705B4890ED000A15
:102940005A4880ED000A584890ED010A584880ED39
:10295000000A554890ED020ABCEEC00A10EE100ABB
:1029600054490880504890ED030A534880ED000A0E
:102970004D4890ED0A0A514880ED000A9FED500A3B
:1029800080ED000A07204F49087008204870092090
:1029900088700A20C8700B2008710C2048710D2027
:1029A00088710020484908704849087048490870F3
:1029B00004A8FFF747F84FF47A720598B0FBF2F1DC
:1029C000B1F1807F00D31DE021F07F40401E4FF029
:1029D000E022506150170F22002807DA13071D0E5E
:1029E0003C4B00F00F04241F1D5503E013071C0E81
:1029F000394B1C5400BF00204FF0E02290610720AB
:102A0000106100BFFDF722FEFEF700FAFFF748FD58
:102A1000012232493248FFF764FEFEF729FE00200A
:102A20003049088001203049087035E02F4800788F
:102A3000012831D100202D4908702D480088401C04
:102A40002B490880084600884FF47A7190FBF1F218
:102A500001FB120000BB1E480078D8B901220421F6
:102A60004FF09040FEF7FDFD22480088401C2149B0
:102A700008800846008805280BD1002204214FF069
:102A80009040FEF7EEFD00201A4908800120104911
:102A9000087000E000BF00BFC8E7000000000000B1
:102AA0005D01002037000020080A0020800000207F
:102AB00084000020A800002088000020A40000203E
:102AC0009A99993FFD0900205801002059010020E2
:102AD000C000002018ED00E000E400E00501050062
:102AE000004800402E000020350000205C0100203E
:102AF000C2000020C400002010B54548C07A6428F8
:102B00000CDA4348C07A43490978884206D04048E5
:102B1000C07A414908706420404908703C48C07A36
:102B20003D490978884209D13B480078401E3A491E
:102B3000087020213A48FEF792FD0FE036480078F1
:102B400028B135480078401E3349087006E0324805
:102B5000007818B920213248FEF77FFD2F48007811
:102B600038B964202D4908702948C07A2A4908706C
:102B700004E02A480078401E284908702448C07A9A
:102B8000244908702248007B64280CDA2048C07A67
:102B900024490978884206D01D48007B22490870E4
:102BA0006420224908701A48007B1F49097888422E
:102BB00009D11D480078401E1B4908704021184863
:102BC000FEF74DFD0FE01848007828B11648007850
:102BD000401E1549087006E01348007818B94021D6
:102BE0000F48FEF73AFD1148007838B964200F49C4
:102BF00008700748007B0C49087004E00B48007817
:102C0000401E0A4908700248C07A0649087010BD83
:102C1000A80D0020BD000020C6000020C700002035
:102C200000100048BC000020C8000020C90000209F
:102C3000C90B0008CD0B00085D100008D50C00087A
:102C400069130008C90B000875110008450C00083D
:102C500051120008190D0008C90B0008C90B000823
:102C600071100008E90D0008CD0A000835110008B0
:102C7000190B00082D100008FD0D0008591300085D
:102C80003D0D000835100008B1130008F50C0008D0
:102C90003D0F0008E50E0008C90B0008290D0008CB
:102CA000C90B0008C90B0008C90B0008C90B0008B4
:102CB000C90B0008C90B0008510F0008E90C0008F7
:102CC00002070000B80B0020E80A00200100000005
:102CD00002070000D80B0020F60A002001000000C7
:102CE00004070000F80B0020040B00200100000086
:102CF00004070000380C0020200B00200100000019
:102D0000030006000C00180030006000C0008001C5
:102D100000030006000C00180030006000C0000036
:102D2000402D000800000020840100005E0500081E
:102D3000B42D0008840100201411000004290008AB
:102D4000410312FFFF02AE041A64021118186666EE
:102D5000263F3333333FCDCC4C3F6666663F4A0C4B
:102D6000823F3D0A97043017B73F9A99D93F48E10F
:102D70001A407B140EC0C3F5E8BF7B148EBF290434
:102D800011180CC3F5A83E1F852B3FD7A370040371
:102D900021B03F2D01020304042809060708090297
:102DA00004060804000D2F0A0C0E1014181C202411
:042DB000282C30009B
:040000050800018965
:00000001FF
