:020000040800F2
:10000000D80900209D010008692500088522000804
:100010003F240008CD0A0008D53C0008000000007D
:10002000000000000000000000000000BB320008DB
:10003000011D0008000000007D2600082935000889
:10004000B7010008B7010008B7010008B7010008B0
:10005000B7010008B7010008B7010008B7010008A0
:10006000B7010008B70100082D200008B7010008FB
:10007000B7010008B7010008B7010008B701000880
:10008000B7010008B7010008B7010008B701000870
:10009000D10A0008B7010008B7010008992000083C
:1000A000B7010008B7010008B7010008B701000850
:1000B000B1350008D9350008B7010008B7010008BC
:1000C000B7010008B7010008B701000809320008AD
:1000D00059320008B7010008B7010008713900085B
:1000E000C11F0008B7010008B7010008B7010008E8
:1000F000B7010008B7010008000000000000000080
:100100000000000000000000DD350008B701000815
:100110000000000000000000B7010008B70100085F
:10012000951C0008B91C0008DD1C0008B701000878
:10013000B7010008F92D0008D12E00080930000889
:10014000B7010008000000000000000000000000EF
:10015000000000000000000000000000000000009F
:100160000000000000000000B7010008B70100080F
:10017000B701000800000000B701000800000000FF
:1001800000000000B7010008DFF80CD000F092FA80
:10019000004800475D3E0008D80900200648804717
:1001A00006480047FEE7FEE7FEE7FEE7FEE7FEE75C
:1001B000FEE7FEE7FEE7FEE73135000889010008AB
:1001C0002DE9FE4F804681EA0300C00F0C460090E7
:1001D00021F0004123F00045B8EB0200A94105D20F
:1001E0004046214690461C460B46024623F00040FE
:1001F000104347D0270DC7F30A00C3F30A510290FA
:10020000401A019040286BDAC3F3130040F4801BBE
:100210000098924620B10023D2EB030A63EB0B0B4C
:1002200001985946C0F14002504600F08DF906464B
:100230000D4650465946019A00F095F910EB08001A
:100240006141002487EA115284EAE7731A4340D0DF
:10025000009A62B3019A012A4FEA075215DC001B8B
:1002600061EB02014FF0004202EA0752CDE9004281
:10027000001C41F5801132462B4600F0CCF903B04A
:10028000BDE8F08F40462146F9E7001B61EB020113
:10029000001C41F5801300185B412018A2F50017DF
:1002A00047EB030140EAD570B6196D4111E06D08C6
:1002B0004FEA360645EAC0754FEA0752001B61EB6C
:1002C0000201001C41F5801149084FEA3000001975
:1002D000514132462B4603B0BDE8F04F00F08CB9D7
:1002E0000098012240000023D0EB020263EBE07390
:1002F000009821464FEAE074B8EB000061EB04017E
:10030000E9E783F000435BE781F0004158E72DE91E
:10031000FE4F81EA030404F0004421F00041009400
:100320004FF0000B23F0004350EA01045ED052EA84
:1003300003045BD0C3F30A54C1F30A552C44A4F25E
:10034000F3340194A0FB0254C1F3130141F4801172
:10035000C3F3130343F4801301FB024400FB034E79
:10036000840A970A44EA815447EA8357A4FB076842
:1003700002958D0A05FB07854FEA932C04FB0C546C
:100380002705029D4FEA065847EA1637B5EB0805E0
:100390006EEB070C870E920E47EA811742EA831232
:1003A000A7FB0201B6EB0B0164EB00042B0D43EA43
:1003B0000C335E1844EB1C50DA465146E7FB020151
:1003C000C5F313044FEA0B3343EA14534FEA0432E4
:1003D000019C43EA0603A4F10C040294009CCDE9BD
:1003E00000B400F018F903B0BDE8F08F002001461A
:1003F000F9E72DE9F04D81EA030404F0004B21F008
:10040000004514464FF0000A23F0004150EA05026F
:1004100020D054EA01021DD0C5F30A570246C5F3A5
:100420001303C1F31300C1F30A5640F4801543F4DB
:100430008013A7EB0608101BD64608F2FD3873EBB5
:10044000050002D308F1010801E092185B41B8F100
:10045000000F03DA00200146BDE8F08D00204FF4C4
:100460008011064684460EE0171B73EB050705D383
:10047000121B63EB050306434CEA010C49084FEAE3
:10048000300092185B4150EA0107EDD152EA0300B7
:1004900012D082EA040083EA0501084305D0101B4C
:1004A000AB4106D20122002306E000224FF00043B8
:1004B00002E06FF0010253101AEB06004CEB0851FA
:1004C00010EB0A0041EB0B01BDE8F04D00F094B8D1
:1004D0000EB540F2334102910021CDE900110A46E8
:1004E0000B4600F098F803B000BD00F0004230F079
:1004F00000400AD0C10D01F56071C0F3160042EA58
:100500000151C2084007114370470020014670475F
:1005100001F0004330B421F0004150EA010206D05E
:100520000A0DA2F56072C1F31301002A02DC30BC8F
:1005300000207047440F44EAC104C100E01830BCF9
:1005400000EBC25000F021B8202A04DB203A00FA68
:1005500002F1002070479140C2F1200320FA03F31A
:10056000194390407047202A06DBCB17203A41FA06
:1005700002F043EAE07306E041FA02F3D040C2F130
:10058000200291400843194670470029A8BF7047D0
:10059000401C490008BF20F00100704710B4B0FAB9
:1005A00080FC00FA0CF050EA010404BF10BC704754
:1005B00049B1CCF1200421FA04F411FA0CF118BF6E
:1005C000012121430843A3EB0C01CB1D4FEA00613D
:1005D0004FEA102042BF002010BC704700EBC35010
:1005E00010440029A4BF10BC7047401C490008BF3C
:1005F00020F0010010BC704710B5141E73F1000408
:1006000008DA401C41F1000192185B411A4301D104
:1006100020F0010010BD2DE9F04D92469B4611B12E
:10062000B1FA81F202E0B0FA80F220329046FFF790
:100630008BFF04460F4640EA0A0041EA0B0153468D
:100640005A46084313D0114653EA010019D0C8F1A5
:100650004002504600F040F805460E4650465946C6
:100660004246FFF771FF084305D0012004E0204611
:100670003946BDE8F08D0020054346EAE0762C437C
:1006800037430A986305E40AA0EB08000022FD0A3C
:1006900044EA47540A3002D500200146E9E7010543
:1006A00010196941DDE9084500196941BDE8F04DBF
:1006B000A2E70000064C074D06E0E06840F00103A9
:1006C00094E8070098471034AC42F6D3FFF760FD7A
:1006D0004C4900086C490008202A04DB203A21FA22
:1006E00002F00021704721FA02F3D040C2F120024B
:1006F000914008431946704770B58C1810F8015B9B
:1007000015F0070301D110F8013B2A1106D110F8AA
:10071000012B03E010F8016B01F8016B5B1EF9D1AE
:100720002B0705D40023521E0DD401F8013BFAE734
:1007300010F8013BCB1A921C03E013F8015B01F89F
:10074000015B521EF9D5A142D8D3002070BD000034
:1007500010B500224FF40041214801F08EFD002227
:100760004FF480411F4801F088FD002201214FF025
:10077000904001F082FD00220421194801F07DFD26
:1007800000224FF48041164801F077FD00224FF41B
:100790000051144801F071FD002202214FF09040F9
:1007A00001F06BFD002208210D4801F066FD0022DA
:1007B0004FF400510A4801F060FD00224FF48051CF
:1007C000084801F05AFD002204214FF0904001F04A
:1007D00054FD00221021024801F04FFD10BD000021
:1007E00000100048000C004810B5AB480078012804
:1007F00010D108214FF0904001F029FD012806D1C9
:1008000002F07EFE4FF40000A449086042E102F0CD
:1008100081FE3FE1A2480078012802D1FFF798FF4E
:1008200038E1A04800780128F0D19F4800780A28D4
:100830007ED2DFE800F005173553809EA9BED2F1C5
:100840004FF48051994801F002FD012807D102F0D0
:10085000E9FD95480078401C9349087001E002F0DA
:10086000E9FD16E19248007800EBC00101EB0010B1
:1008700090490968B1EB800F07D202F0ABFD8D48BB
:100880000068401C8B49086009E002F099FD864829
:100890000078401C84490870012086490860F8E00F
:1008A0008548007800EBC00101EB00108149096820
:1008B000B1EB800F07D202F005FE7E480068401CB5
:1008C0007C49086009E002F0F3FD77480078401C9D
:1008D00075490870012077490860DAE07748008898
:1008E00000EBC00101EB00104FF4000101EB8000B0
:1008F0006A49096888420AD90122D1036B4801F08C
:10090000BCFC012251036E4801F0B7FC12E000224A
:100910004FF40041654801F0B0FC00224FF4005153
:10092000674801F0AAFC60480078401C5E4900E07E
:10093000AEE00870ADE05E48007800EBC00101EB6E
:1009400000105C490968B1EB800F07D202F0A6FDE8
:1009500058480068401C5749086009E002F094FDBF
:1009600051480078401C50490870012051490860E6
:100970008FE002F0BBFD4C480078401C4A490870EB
:1009800001204C49086084E04FF40061474801F0C1
:100990005EFC012802D102F067FD09E002F052FD81
:1009A00041480078401C40490870012041490860D6
:1009B0006FE04FF40061424801F049FC01280BD17F
:1009C00002F026FD02F088FD37480078401C3649C9
:1009D00008700120374908605BE03748007800EB79
:1009E000C00101EB001033490968B1EB800F07D259
:1009F00002F004FD2F480068401C2E49086009E001
:100A000002F0F2FC28480078401C274908700120B9
:100A1000284908603DE0FFE72848008800EBC00156
:100A200001EB00104FF4000101EB80001B49096845
:100A300088420BD90122D1031C4801F01EFC01227F
:100A400002214FF0904001F018FC20E000224FF40A
:100A50000041164801F011FC002202214FF09040A5
:100A600001F00BFC1748007817490978884208DD27
:100A700000200D49087014480078401C1249087085
:100A800005E064200849087000200F49087000E064
:100A900000BF00BF10BD000067000020B0010020B3
:100AA00069000020680000201801002000100048A4
:100AB0000A010020FC0000200B010020080100209A
:100AC000000C0048160100201701002000BFFEE7BF
:100AD00010B5074800F012F806480068052803D151
:100AE00001200549087002E000200349087010BD8C
:100AF000D2010020D4040020D101002070B50546A9
:100B000000211D4800F04DFA08B9002070BD1B4AB5
:100B10000021194800F054FA1848006811280CD137
:100B2000002405E015480B30005D15490855641C8C
:100B30001248807AA042F5D81BE0104800681028BF
:100B40000CD1002405E00D480B30005D0D4908551F
:100B5000641C0A48807AA042F5D80AE0002404E028
:100B600006480B30005D2855641C0448807AA0427A
:100B7000F6D80248807AC9E700640040D404002017
:100B800010000020180000202DE9F04385B0064633
:100B9000884600242A480660A1462A48864202D197
:100BA00040F2F570064600250CE005EB850026496D
:100BB00051F82000B04202D10120814604E0681CB7
:100BC000C0B20546092DF0DB00BFB9F1010F34D1E9
:100BD00005EB85001C4951F82000009000208DF89D
:100BE00008008DF8090008208DF80A00002406E0AE
:100BF00018F804100DF10B000155601C84B2082C8C
:100C0000F6DB6946114800F063FA0746002401E06C
:100C1000601C84B239460D4800F0EEFA18B940F66F
:100C2000FF708442F4DB40F6FF70844203DB012056
:100C300005B0BDE8F0830020FAE700BFF8E7000048
:100C40000C000020000007F5884800080064004000
:100C500000B58BB00121080501F04AFD07220021F3
:100C6000394801F0D1FA07220121374801F0CCFAC6
:100C70000320099002208DF8280003208DF8290018
:100C800000208DF82A0001208DF82B0009A92E489C
:100C900001F072FA14208DF8200001208DF8210057
:100CA00000208DF8220001208DF8230008A801F013
:100CB0005DFC0121480601F02BFD244800F048F8B6
:100CC00005A800F0F5F900208DF81A0001208DF834
:100CD0001B0000208DF81C008DF81D008DF81E00F3
:100CE0008DF81F008DF816008DF8170003208DF881
:100CF000180001208DF819000820ADF8140005A98E
:100D0000124800F0C4F800208DF80E008DF80F0096
:100D100001208DF810000020ADF80400ADF80600A9
:100D2000ADF80800ADF80A00ADF80C0001208DF810
:100D3000110001A800F01EF801220221034800F072
:100D40009DF80BB000BD0000000C0048006400409E
:100D500010B504460648844208D10121480601F036
:100D6000E7FC00214FF0007001F0E2FC10BD000034
:100D70000064004010B50021837A012202FA03F1D9
:100D80003D4A126842F001023B4B1A603A4A1C325B
:100D900012688A43384B1C331A60027BCAB9364A40
:100DA0000C3212688A43344B0C331A604288C38871
:100DB00042EA0343304A4032847A42F834300288AF
:100DC000838842EA03432C4A4032847A02EBC4020D
:100DD0005360027B012A19D1274A0C3212680A4358
:100DE000254B0C331A604288038842EA0343224AA7
:100DF0004032847A42F83430C288838842EA03431E
:100E00001D4A4032847A02EBC4025360C27A3AB976
:100E1000194A121D12688A43174B1B1D1A6006E0FF
:100E2000154A121D12680A43134B1B1D1A600289D2
:100E300032B9114A143212688A430F4B14331A60C4
:100E40000289012A06D10C4A143212680A430A4B5D
:100E500014331A60427B012A06D1074A1C321268F9
:100E60000A43054B1C331A60034A126822F0010240
:100E7000014B1A6010BD0000006600401AB14369C2
:100E80000B43436102E043698B434361704730B5D4
:100E9000024600200023146824F002041460146841
:100EA00044F00104146000E05B1C546804F0010489
:100EB0001CB94FF6FF74A342F6D1546804F0010444
:100EC0000CB900206CE08C79012C04D1146844F03A
:100ED0008004146003E0146824F080041460CC796A
:100EE000012C04D1146844F04004146003E0146839
:100EF00024F0400414600C7A012C04D1146844F0EE
:100F00002004146003E0146824F0200414604C7A78
:100F1000012C04D1146844F01004146003E0146838
:100F200024F0100414608C7A012C04D1146844F06D
:100F30000804146003E0146824F008041460CC7AF8
:100F4000012C04D1146844F00404146003E0146814
:100F500024F0040414608C78A407CD7844EA056476
:100F60000D7944EA05444D7944EA05540D886D1E17
:100F70002C43D461146824F001041460002300E0C1
:100F80005B1C546804F001041CB14FF6FF74A342CB
:100F9000F6D1546804F001040CB1002000E00120F7
:100FA00030BD0246002019B9D36803F0030006E003
:100FB000012903D1136903F0030000E0002070470A
:100FC00010B500F5D87303EB01131B6803F004039D
:100FD0001372137A53B900F5D87303EB01131B682E
:100FE00040F2FF7404EA5353136009E000F5D8732C
:100FF00003EB01131B686FF0604404EAD3035360F2
:1010000000F5D87303EB01131B6803F0020353725E
:1010100000F5D87303EB01135B6803F00F039372C1
:1010200000F5D87303EB01135B681B0AD37400F55A
:10103000D87303EB01139B68D37200F5D87303EBED
:1010400001139B681C0A147300F5D87303EB01139A
:101050009B681C0C547300F5D87303EB01139B6859
:101060001B0E937300F5D87303EB0113DB68D37386
:1010700000F5D87303EB0113DB681C0A147400F548
:10108000D87303EB0113DB681C0C547400F5D873A0
:1010900003EB0113DB681B0E937421B9C36843F0A3
:1010A0002003C36003E0036943F02003036110BD24
:1010B00000218171C171017241728172C1728170AE
:1010C000C17003210171022141710121018070472A
:1010D00010B502460020936803F08063B3F1806F7F
:1010E00000D110E0936803F00063B3F1006F01D109
:1010F000012008E0936803F08053B3F1805F01D1D1
:10110000022000E00420042874D002F5C07303EB31
:1011100000131B6803F0010402F5C07303EB001316
:101120001C600B7A7BB94B7A0C8843EA445302F576
:10113000C07404EB00142468234302F5C07404EB6C
:101140000014236010E00B7A4C6843EAC4034C7A25
:10115000234302F5C07404EB00142468234302F512
:10116000C07404EB001423608B7A03F00F038B72BE
:1011700002F5C07303EB00135B6823F00F0402F564
:10118000C07303EB00135C6002F5C07303EB001344
:101190005B688C7A234302F5C07404EB001463602F
:1011A0008B7B1C064B7B44EA03440B7B44EA032302
:1011B000CC7A234302F5C07404EB0014A3608B7C4B
:1011C0001C064B7C44EA03440B7C44EA0323CC7B9F
:1011D000234302F5C07404EB0014E36002F5C0730E
:1011E00003EB00131B6843F0010402F5C07303EB2B
:1011F00000131C6010BD000010B50246002321B191
:10120000012907D002290FD109E090681D4C00EA9E
:1012100004030BE090681C4C00EA040306E09068AD
:101220001A4C00EA040301E0002300BF00BF184C81
:10123000181BA34216D007DC83B16FF080601844FE
:1012400070B1022818D111E0B0F5007F10D0114C18
:10125000204448B1B0F5003F0ED10BE002230DE071
:1012600000230BE0002309E0002307E0012305E051
:10127000012303E0012301E0002300BF00BFD8B237
:1012800010BD00000300000400030008000003106C
:10129000000100080001FFF710B500240F4908689D
:1012A00000F0D2F9052801D1322415E000200C49C4
:1012B0008884084680780006C97840EA01400849D9
:1012C000097940EA01200649497908434008044960
:1012D000C861012081F82600204610BD7C01002055
:1012E000B80200202DE9F0472248D0F800800668B7
:1012F0000146086800F0A8F904464FF00009032CE5
:1013000003D100F037FF814630E0012C01D0022CE0
:101310002AD11948807800061749C97840EA014067
:101320001549097940EA01201349497940EA010742
:10133000002512E0012C05D10021084602F0F4FC42
:10134000814604E00021084602F0C6FC8146761C76
:101350000021304601F0F2F86D1CBD42EAD90021AF
:10136000404601F0EBF801E04FF032094846BDE895
:10137000F08700007C010020B8020020EF20044923
:101380000870BE204870AD208870DE20C87070479D
:10139000840100203020704710B51C4890F8274089
:1013A000807800021949498840EA112080B278B952
:1013B000164890F8270040F08100144981F8270072
:1013C000084690F8270000F0EF0081F8270014E0AD
:1013D0000E4890F8270000F0800070B10B4890F89C
:1013E000270040F01000094981F82700084690F8CE
:1013F000270000F07F0081F82700044890F82710AC
:10140000204600F055FA002010BD0000B802002070
:1014100070B50024214890F82760007900021F4928
:10142000898840EA112085B295BB1C488078A8B90C
:101430001A4890F8270040F01000184981F827005A
:10144000084690F8270000F07F0081F82700084642
:1014500090F82710304600F02BFA1DE00F488078F6
:10146000012816D10D4890F8270000F0DF000B4945
:1014700081F82700084690F8270000F07F0081F8E7
:101480002700084690F82710304600F011FA03E0D4
:1014900001E0312400E03124204670BDB802002074
:1014A00010B503488178032000F066FD10BD0000F0
:1014B000B802002010B50621022000F05DFD10BD2D
:1014C00010B524210548C1720021017343214173E5
:1014D00000218173024801F031F810BDB8020020EC
:1014E000F001002000210248C16000207047000088
:1014F000B802002002210348C172012101730020BB
:1015000070470000B802002038B5274880788DF871
:10151000000000208DF801008DF802009DF8000009
:1015200004283ADA9DF801009DF800101F4A02EBEA
:1015300001110978884230DA9DF802009DF8001008
:1015400002EB01114978884227DA9DF8000000F08B
:1015500063FB9DF80000154901EB0010017812486B
:10156000C1729DF8000000F083FB0F4908739DF8DD
:10157000001001EB81010E4A02EB81010873009813
:1015800000F060FF0446084840689DF8001001EB39
:101590008101074A42F8210003E000210248C1729C
:1015A0000024204638BD0000B8020020284800086A
:1015B00068020020034890F82710C17200210173CF
:1015C00000207047B802002000210248C1720020AC
:1015D00070470000B802002010B500F019F800F0C4
:1015E00005F9044981F827000020C861086200F06D
:1015F00019FF10BDB80200200449002003E00022BA
:101600000A70491C401C3028F9D37047A4030020FD
:1016100010B5FFF7F1FFFFF7B1FE00200749087092
:10162000022007490870002405E00648015D0448CF
:101630000E300155641C042CF7DB10BD880100201E
:10164000F0010020840100200146B1F1005F04D3C5
:10165000134A914201D8012020E0B1F1006F04D378
:10166000104A914201D8032018E0B1F57E0F04D34F
:101670000D4A914201D8042010E0002905D340F61C
:10168000FF72914201D2002008E0B1F5801F04D31F
:10169000064A914201D2022000E005207047000076
:1016A0000040002000000108FF03FE00FF011000C1
:1016B00070B5002412490868FFF7C6FF05461049B7
:1016C0004868FFF7C1FF0646052D01D0052E01D160
:1016D000322412E00B48807800060A49C97840EAB3
:1016E00001400849097940EA01200649497908433F
:1016F00004490862012081F82600204670BD0000E0
:101700007C010020B802002010B503488178032036
:1017100000F0B6FF10BD0000B802002010B5062191
:10172000022000F0ADFF10BD0146087870470000B0
:1017300070B5002500244EE0294800EB0410007B22
:10174000012847D105EB4500264951F8200004EB5C
:101750008401254A42F8210005EB4500214901EBAF
:101760008000808804EB840102EB8101888005EB16
:1017700045001C4901EB8000807904EB840102EBF9
:101780008101887205EB4500164901EB8000C079A4
:1017900004EB840102EB8101087305EB450011495C
:1017A00001EB8000007A04EB840102EB81014873B5
:1017B00005EB45000B4901EB8000407A04EB840106
:1017C00002EB8101C873012004EB840102EB81016B
:1017D000C8806D1C641C042CAEDB02F049FA70BD9D
:1017E00028480008A403002068020020014800786F
:1017F0007047000088010020002000217047000091
:1018000008B5084880788DF800000648C0788DF843
:101810000100044800798DF80200009800F012FEE3
:1018200008BD0000B802002010B5034A9178506846
:1018300000F084FE10BD0000B802002010B51B4867
:1018400090F8274090F8270000F0B800174981F879
:101850002700084690F82700897801F047010843DF
:10186000124981F8270004F00400042809D0084632
:1018700090F8270000F00400042802D100F0FCF8E2
:101880000CE004F00400042808D1084890F8270070
:1018900000F00400042801D0FFF7AEFE034890F8E2
:1018A0002710204600F004F8002010BDB8020020E8
:1018B00070B506460D4606F0040004280DD005F06C
:1018C0000400042809D1002404E00A48005D0A4904
:1018D0000855641C042CF8DB09E006F00400042819
:1018E00005D105F00400042801D0FFF747FD0348A7
:1018F000057070BDFE0100208401002088010020D9
:10190000F8B50E484668002400250FE069463046C9
:1019100001F0A2F80446322C06D09DF80020E81C05
:10192000064908310A54761C681CC5B20348807801
:10193000A84201DD002CE9D02046F8BDB802002005
:1019400070B500263248C478042C5EDA204601F0D7
:10195000B7F82F488078012803D02D4880780228D6
:1019600049D12B4800792B4901EB041109788842B1
:1019700001DB322607E02648007904EB8401264A81
:1019800002EB810148736EBB2148407904EB84016E
:10199000214A02EB810188721D48C588012D06DAB3
:1019A000012004EB840102EB8101888005E004EB57
:1019B0008400194901EB8000858004EB84001649FE
:1019C00001EB8000808804EB8401134A02EB810163
:1019D000C8800F488078012805D104EB840102EB10
:1019E0008101C8730EE0012004EB84010A4A02EB76
:1019F0008101087406E0002004EB8401064A02EB32
:101A00008101C87302F034F900E03226304670BD1F
:101A1000B8020020284800086802002010B5002401
:101A20001348807898B10FE004EB8400114901EB72
:101A30008000007C30B1012004EB84010D4A02EBF0
:101A40008101C873601CC4B2042CEDDB0BE008E01C
:101A5000002004EB8401074A02EB8101C873601C7B
:101A6000C4B2042CF4DB02F003F9002010BD000026
:101A7000B80200206802002010B50021002048E0D4
:101A8000254A02EB0012127B012A41D100EB8002B1
:101A9000224B53F8222001EB4103214C44F8232030
:101AA00000EB80021D4B03EB8202928801EB4103A5
:101AB00004EB83039A8000EB8002184B03EB820255
:101AC000927A01EB410304EB83039A7100EB8002ED
:101AD000124B03EB8202127B01EB410304EB830305
:101AE000DA7100EB80020D4B03EB8202527B01EBBB
:101AF000410304EB83031A7200EB8002074B03EBF4
:101B00008202D27B01EB410304EB83035A72491C2E
:101B1000401C0428B4DB10BD2848000868020020DF
:101B2000A403002043210248C17200207047000036
:101B3000B8020020F8B50F480668002503240DE020
:101B40006946304600F088FF0546322D03D09DF8E7
:101B5000001009480155761C601CC4B206480838BC
:101B60008078C01CA042EBDC0021304600F0E6FC8F
:101B70002846F8BD7C010020C00200201CB50024CE
:101B80002148007900062049898801F47F4140EA14
:101B900001201D49496801F47F0140EA11201A49DA
:101BA000496840EA116019490860174880788DF843
:101BB00004009DF80400012808D09DF804000228C4
:101BC00004D09DF80400042800D03224D4B90F4872
:101BD000006800900098FFF737FD052801D13224F6
:101BE00008E000F005FD9DF80410884202DA00F0DC
:101BF00081FC044634B9DDE9000102F0CDF800F0C3
:101C000049FC044620461CBDB80200207401002097
:101C10000246362070470000F0B5144D05EB001564
:101C20002D78124E06EB0016767815FB06F5EB1DA7
:101C3000DD1703EB5575ED100C4E06EB00163678EC
:101C40000A4F07EB00177F7816FB0755ACB2074B1E
:101C500003EB00135968002204E000230B80891C69
:101C6000531C9AB2A242F8DBF0BD000028480008DD
:101C700002460021002007E0054B03EB01131B780F
:101C80000344D8B24B1CD9B29142F5DB7047000037
:101C90002848000808B50221054801F064FA28B177
:101CA0006946034801F068FA0249086008BD00006F
:101CB00000600140C401002008B50221054801F080
:101CC00052FA28B16946034801F056FA0249086001
:101CD00008BD000000600140C801002008B50221D5
:101CE000054801F040FA28B16946034801F044FA7A
:101CF0000249086008BD000000600140CC010020DE
:101D00007047000001B504490098086000BF024810
:101D100000680028FBD108BD0000002010B58248F3
:101D20000078012815D1C102804800F090FA0446DD
:101D30004FF400617E4800F08AFA04404FF480417D
:101D40007B4800F08DFA0440E007000E7949887066
:101D500002E00020774988707748007801280AD18E
:101D60002021724800F073FA80077249897841EAAD
:101D70001060704988707148007801280CD16D4856
:101D800081786F480078642801D1012000E00020AC
:101D900041EA4010674988706A480078012818D1E4
:101DA00069480068694988420CD2674800686849F8
:101DB000884207D908214FF0904000F048FA08B156
:101DC000012000E000205B49897841EA0010594970
:101DD000887060480078012813D10103534800F04F
:101DE00036FA38B14FF48041514800F039FA08B161
:101DF000012000E000204F49897841EAC0004D49A8
:101E000088705548007801281ED154480088401C2D
:101E1000524908804FF48051444800F018FA60B9E4
:101E200001214FF0904000F01BFA30B14B48008880
:101E3000B0F5FA6F01DB012000E000203D49897810
:101E400041EA80003B49887045480078012813D159
:101E5000C102374800F0FBF938B101214FF0904042
:101E600000F0FEF908B1012000E000203149897836
:101E700041EA40002F4988703A48007801280BD188
:101E80002C48807838490978322901DD012100E0A9
:101E900000210843274988703448007801281FD161
:101EA0002948006832490968884205D202214FF06A
:101EB000904000F0D5F958B9234800682C490968CA
:101EC000884207D94FF40051194800F0C9F908B108
:101ED000012000E00020C007000E1649C87002E093
:101EE00000201449C8702348007801281AD1022123
:101EF0004FF0904000F0B4F928B94FF400510C486D
:101F000000F0AEF938B110480068194909688842F4
:101F100001D1012000E000200649C97841EA801083
:101F20000449C87010BD00006C000020001000487B
:101F3000000C0048B20000206D0000206E00002060
:101F4000180100206F000020B0010020F401800083
:101F50000CFE7F0070000020720000205E00002058
:101F600071000020730000200C010020740000208C
:101F7000B4010020750000202DE9F04104460F4611
:101F80000D4805684FF0000826460CE00B48815DBF
:101F9000002001F0C9FE80466D1C0021284600F09B
:101FA000CDFA701CC6B2E019B042EFDC0348C56040
:101FB0004046BDE8F08100007C010020B80200200E
:101FC00010B54FF4806000F077F838B34FF48060BC
:101FD00000F06CF810214FF0904000F038F978B91B
:101FE00000200F49087001200E4908700E48006853
:101FF000401C98B10C480068401C0B4908600DE07B
:102000000948006820B108480068401E0649086079
:1020100001200349087000200249087010BD00002B
:10202000EC010020ED010020B001002010B51020CF
:1020300000F042F830B3102000F038F84FF480611F
:10204000114800F004F970B901201049087000200F
:102050000F4908700F480068A0B10E480068401E84
:102060000C4908600EE0002008490870012008496A
:10207000087008480068401C20B106480068401CF1
:102080000449086010BD0000000C0048EC0100206D
:10209000ED010020B001002010B5402000F00CF848
:1020A00010B1402000F002F810BD000001490860A6
:1020B0007047000014040140014600200022074B35
:1020C0001B6803EA0102054B14331B680B4013B174
:1020D0000AB1012000E00020704700000004014028
:1020E000002123498279002A3AD00A4612680368FF
:1020F0009A430B461A600A1D126803689A430B1D27
:102100001A60027911440A6803681A430A60184A7F
:102110000832126803689A43154B08331A601A1D77
:10212000126803689A43124B0C331A604279102AE2
:102130000ED11A1F126803681A430D4B08331A6038
:102140001A1D126803681A43094B0C331A600DE01C
:102150000749427911440A6803681A430A6005E096
:10216000027911440A6803689A430A6070470000C4
:102170000004014000207047F0B50A46002100230A
:10218000002400BF3DE0012505FA01F3156805EACA
:1021900003049C4234D11579012D02D01579022D0A
:1021A00016D185684F000326BE40B543856055793A
:1021B0004E00B540866835438560868801258D4090
:1021C000AE438680868895798D40ADB22E43868059
:1021D00005684F000326BE40B543056015794E00E3
:1021E000B540066835430560C5684F000326BE400C
:1021F000B543C560D5794E00B540C6683543C56066
:10220000491C1029BFD3F0BDF0B5002300244D07B1
:10221000ED0E02FA05F3CE1000F1200555F8265018
:102220004E07F70E0F26BE40B543CF1000F1200633
:1022300046F82750CE1000F1200555F8265045EA03
:102240000304CE1000F1200545F82640F0BD0246FB
:102250000020138A0B400BB1012000E000207047E2
:1022600002460020938A0B400BB1012000E00020C1
:10227000704701857047816170470AB1816100E054
:102280000185704700BFFEE700B589B001214FF41A
:10229000581000F02DFA47F21010079001208DF829
:1022A000200000208DF8220003208DF8210002205C
:1022B0008DF8230007A94F48FFF75EFF4EF21C0080
:1022C000079007A94C48FFF757FF0720079007A979
:1022D0004FF09040FFF750FF0420079007A94748B0
:1022E000FFF74AFF4FF44060079000208DF8200070
:1022F0008DF8220003208DF8210001208DF82300A5
:1023000007A93C48FFF738FF4FF4C350079007A9CF
:102310003948FFF731FF1820079007A94FF0904088
:10232000FFF72AFF0121084600F012FA0A210320D4
:1023300000F0C4FF0621042000F0C0FF102005902B
:1023400000208DF8180008208DF8190001208DF864
:102350001A0005A8FFF7C4FE4FF480600390002028
:102360008DF8100008208DF8110001208DF8120062
:1023700003A8FFF7B5FE4020039000208DF8100061
:1023800008208DF8110001208DF8120003A8FFF736
:10239000A7FE4FF4E06000F021F90A208DF8080054
:1023A00001208DF80A0000208DF8090001208DF829
:1023B0000B0002A800F0DAF828208DF804000020B5
:1023C0008DF806008DF8050001208DF8070001A8A2
:1023D00000F0CCF817208DF8040000208DF80600DE
:1023E0008DF8050001208DF8070001A800F0BEF867
:1023F00009B000BD000C004800100048000400486F
:1024000010B500EB8003064C04EB8302002103E0CF
:1024100000231370521C491C1429F9D310BD00006D
:102420006802002010B5002404E02046FFF7E8FF12
:10243000601CC4B2042CF8DBFFF77AF910BD00BFB2
:10244000FEE7000001B500209DF8001004291ADA0B
:102450009DF801109DF800200C4B03EB021212783E
:10246000914210DA9DF802109DF8002003EB021251
:102470005278914207DA0649BDF800200A809DF89B
:1024800002208A7000E0322008BD000028480008C1
:102490007801002038B51548006800909DF80000CC
:1024A000134901EB00104078401E9DF8021088424D
:1024B00010D19DF800000E4901EB00100078401E7D
:1024C0009DF80110884201D100240DE000F012F8BF
:1024D000044609E09DF80200401CC0B28DF80200DD
:1024E0000098FFF7AFFF0446204638BD7801002072
:1024F0002848000838B500240E48006800909DF870
:1025000000000D4901EB00100078401E9DF80110FD
:10251000884201D132240BE09DF80100401CC0B27A
:102520008DF8010000208DF802000098FFF78AFF67
:10253000204638BD780100202848000870B50546BF
:102540000C460026022C01DB322609E02846FFF764
:102550007BF8052801D1322602E0024840F82450D9
:10256000304670BD7C0100207047000070B500212E
:1025700000230F22C47804B3154C246804F4E064EB
:10258000C4F5E064210AC1F10403CA40447804FAA6
:1025900003F184781440214309010E4C0678A155BB
:1025A000047804F01F050124AC4005786D11AD00DE
:1025B00005F1E025C5F8004109E0047804F01F05A5
:1025C0000124AC40044D0678761145F8264070BDD4
:1025D0000CED00E000E400E080E100E0024901438E
:1025E000024A1160704700000000FA050CED00E09F
:1025F0003EB5184800680290002400259DF8091097
:102600009DF808006B46224600F0D8F90DE09DF8D1
:1026100009109DF808006B46224600F0CFF99DF89E
:1026200004002844C5B2601CC4B29DF8040038B14F
:102630009DF80800084901EB00104078A042E6D15F
:102640009DF80800044901EB00104078401BC0B21F
:102650003EBD0000780100202848000829B1064A44
:1026600012680243044B1A6004E0034A1268824372
:10267000014B1A6070470000007000407047000076
:102680002DE9F04105460E46174807684FF000084F
:102690002C4622E014490868FEF7D6FF022806D12E
:1026A0001248015D002001F017FB80460EE00E4944
:1026B0000868FEF7C9FF032806D10C48015D002019
:1026C00001F01EFB804601E04FF032087F1C002124
:1026D0003846FFF733FF601CC4B2A819A042D9DC0A
:1026E0004046BDE8F08100007C010020B8020020D7
:1026F00029B1064A52690243044B5A6104E0034A75
:1027000052698243014B5A61704700000010024039
:1027100029B1064AD2690243044BDA6104E0034A54
:10272000D2698243014BDA61704700000010024019
:1027300029B1064A12690243044B1A6104E0034AB4
:1027400012698243014B1A61704700000010024079
:1027500029B1064A92690243044B9A6104E0034A94
:1027600092698243014B9A61704700000010024059
:1027700029B1064AD2680243044BDA6004E0034AF6
:10278000D2688243014BDA607047000000100240BB
:1027900070B5002100230024002500227A4E7668BF
:1027A00006F00C0121B1042905D0082921D105E04A
:1027B000764E066020E0754E06601DE0724E76682B
:1027C00006F47013704E766806F48034022606EB29
:1027D00093431CB96E4E5E43066009E06A4EF66A8A
:1027E00006F00F06751C694EB6FBF5F65E430660F3
:1027F00002E0664E066000BF00BF634E766806F0DA
:10280000F0010909634E725C0668D64046605E4E70
:10281000766806F4E061090A5E4E725C4668D6404E
:102820008660594E766806F46051C90A594E725C4A
:102830004668D640C660544E766806F44041890B1F
:10284000554E725CC668B6FBF2F606614E4E76686F
:1028500006F07841C1F3C361504E725C0668B6FB66
:10286000F2F64661484E366B06F04006402E03D025
:1028700048F21206866102E04FF400468661424E3D
:10288000366B06F01006102E02D0404EC66101E0F5
:102890000668C6613C4E366B06F02006202E02D03C
:1028A0003A4E066201E006680662374E366B06F065
:1028B000030616B9C668466219E0334E366B06F059
:1028C0000306012E02D10668466210E02E4E366BDA
:1028D00006F00306022E02D1B603466207E02A4E36
:1028E000366B06F00306032E01D1284E4662264EB3
:1028F000366B06F4403616B9866886621DE0224EB5
:10290000366B06F44036B6F5803F02D10668866223
:1029100013E01D4E366B06F44036B6F5003F03D18A
:102920004FF40046866208E0174E366B06F44036D8
:10293000B6F5403F01D1154E8662134E366B06F454
:10294000402616B98668C6621DE00F4E366B06F447
:102950004026B6F5802F02D10668C66213E00A4E03
:10296000366B06F44026B6F5002F03D14FF400462F
:10297000C66208E0044E366B06F44026B6F5402FDA
:1029800001D1024EC66270BD0010024000127A00F2
:1029900000093D0089010020990100209D010020CF
:1029A0000549496821F07841034A51601146496858
:1029B0000143516070470000001002402DE9F043D0
:1029C00004460D461646072202FB0560DFF88080AC
:1029D00008EB0418D8F80480DFF8749009EB0419A8
:1029E00099F80090C9EBC90908EB490802464FEA7B
:1029F000E07900EB59794FEAE90908EB490C4FEA15
:102A0000E07800EB58784FEAE808A0EBC8084FEAF6
:102A100048684FEA1867BCF80020DFF8388038F8BB
:102A2000178002EA08013941094A02EB0412526890
:102A300032F810201A60032901DA197101E004222A
:102A40001A711A6802F100521A60BDE8F0830000A2
:102A5000284800086848000870B505460C4600265E
:102A60002846FEF7F1FD012802D12878207025E0E4
:102A70002846FEF7E9FD20B92846FEF755FE2070EE
:102A80001CE02846FEF7E0FD022802D128782070DD
:102A900014E02846FEF7D8FD032802D128782070DC
:102AA0000CE02846FEF7D0FD042806D1A5F57E00EF
:102AB00000F580500078207000E03226304670BD6E
:102AC00070B5044604EB84000A4951F8206004EB19
:102AD000840001EB8000057B2046FFF791FC04EBAE
:102AE0008400044941F8206004EB840001EB80007D
:102AF000057370BD6802002010B588B00024012164
:102B00004FF0E060FFF724FE01210807FFF700FE09
:102B100001214FF46060FFF7A1FD4FF02840FFF75F
:102B20003FFF01214805FFF7E3FD01210805FFF7FD
:102B3000DFFD01218804FFF7DBFD03208DF80C0089
:102B400000208DF80F004FF4D060029002A9A14838
:102B5000FFF712FB03208DF80C0000208DF80F000A
:102B60004FF40070029002A99B48FFF705FB032079
:102B70008DF80C0000208DF80F004FF400400290FB
:102B800002A99648FFF7F8FA002000F033FB052071
:102B9000FFF7B8F80121924800F0DAFA01219148D4
:102BA00000F0D6FA0121904800F0D2FA01218D48B8
:102BB00000F0FDFA01218C4800F0F9FA0121884863
:102BC00000F0F5FA1E2400BF4FF00041854800F0E8
:102BD000CAFA10B9601E0400F6D114B9012008B079
:102BE00010BD1E2400BF4FF000417D4800F0BBFA2D
:102BF00010B9601E0400F6D10CB90120EFE71E24C5
:102C000000BF4FF00041784800F0ADFA10B9601EE7
:102C10000400F6D10CB90120E1E74FF040600490C8
:102C2000002005900690079004AA00216C4800F04F
:102C300067FA04AA00216B4800F062FA04AA002196
:102C4000694800F05DFA00226849654800F06EFAB4
:102C500000226749634800F069FA0022654961482B
:102C600000F064FA002262495F4800F05FFA002237
:102C700060495D4800F05AFA5C49594800F0A2FAF0
:102C80005C492031574800F09DFA5A492031564896
:102C900000F098FA0121534800F097FA01215248B8
:102CA00000F093FA01214E4800F08FFA00214D48C0
:102CB00000F07DFA00214C4800F079FA00214848E4
:102CC00000F075FA0021464800F029FA0021454835
:102CD00000F025FA0021444800F021FA404800F0B5
:102CE00084FA404800F081FA3F4800F07EFA4FF441
:102CF000F03400BF01213B4800F035FA10B9601EE6
:102D00000400F7D10CB9022069E74FF4F03400BF9A
:102D10000121334800F027FA10B9601E0400F7D1F2
:102D20000CB902205BE74FF4F03400BF01212E48BC
:102D300000F019FA10B9601E0400F7D10CB9022096
:102D40004DE73D208DF8040000208DF805008DF83A
:102D5000060001208DF8070001A8FFF707FC3E20C0
:102D60008DF8040000208DF805008DF80600012084
:102D70008DF8070001A8FFF7F9FB3F208DF804004C
:102D800000208DF805008DF8060001208DF8070061
:102D900001A8FFF7EBFB01220221124800F0FEF927
:102DA00001220221104800F0F9F9012202210C4809
:102DB00000F0F4F90A4800F013FA0A4800F010FA9B
:102DC000094800F00DFA0021074800F0C1F9002081
:102DD00005E7000000100048000C0048000400480F
:102DE00000600140006401400068014004000200EE
:102DF000200005008000070010B52DED068B82B085
:102E00000221274800F0AFF9002844D001A9244846
:102E100000F0B2F984B223490198884202D12248D5
:102E2000048038E021490198884202D11E4844803C
:102E300031E01F49019888422DD11B48848001460A
:102E4000898801F5004188B2FDF742FB41EC1A0B7D
:102E50009FED180B53EC102BFDF759FA41EC190BB1
:102E60009FED160B53EC102BFDF7C3FA41EC180B3A
:102E7000FDF74EFB134908600021134800F068F984
:102E80000121124800F064F90021054800F060F9C2
:102E90000E4800F0A5F902B0BDEC068B10BD000095
:102EA0000060014000010800FC04002080000700D1
:102EB00004000200FCA9F1D24D62004000000000B5
:102EC000E0FFEF40E40100200068014000640140A1
:102ED00000B52DED068B81B002213D4800F043F98D
:102EE000002870D069463A4800F046F93949088010
:102EF0000098012804D1084600883749088062E01C
:102F000036490098884204D13248008832494880C6
:102F100059E033490098884221D12E4800882E4933
:102F200088802C49098801F5004188B2FDF7D0FA64
:102F300041EC1A0B9FED2B0B53EC102BFDF7E7F92F
:102F400041EC190B9FED290B53EC102BFDF751FAB7
:102F500041EC180BFDF7DCFA2649086033E02649FE
:102F6000009888422FD11B4800881B49C880194906
:102F7000098801F5004188B2FDF7AAFA41EC1A0B65
:102F80009FED180B53EC102BFDF7C1F941EC190B19
:102F90009FED160B53EC102BFDF72BFA41EC180BA1
:102FA000FDF7B6FA154908600121154800F0D0F880
:102FB0000021074800F0CCF80021124800F0C8F8C2
:102FC0000F4800F00DF901B0BDEC068B00BD00000C
:102FD0000064014026000020E804002002000100F7
:102FE00020000500FCA9F1D24D6200400000000065
:102FF000E0FFEF40E801002080000700DC01002036
:10300000006801400060014000B52DED068B81B0E5
:1030100002212E4800F0A7F8002853D069462B481B
:1030200000F0AAF82A4908800098012804D108462F
:1030300000882849088145E027490098884204D142
:1030400023480088234948813CE02449009888426D
:1030500004D11F4800881F49888133E02049009827
:1030600088422FD11A4800881A49C881184909880E
:1030700001F5004188B2FDF72BFA41EC1A0B9FEDE8
:10308000190B53EC102BFDF742F941EC190B9FED96
:10309000170B53EC102BFDF7ACF941EC180BFDF7B7
:1030A00037FA144908600021134800F051F8002154
:1030B000064800F04DF80121104800F049F80F488B
:1030C00000F08EF801B0BDEC068B00BD0068014039
:1030D00028000020E8040020020001002000050074
:1030E00080000700FCA9F1D24D6200400000000002
:1030F000E0FFEF40E001002000640140006001407B
:1031000030B5002300F1200303EB8103D2E9004531
:103110002C4395682C43D5682C431C6030BD0A466F
:10312000416821F0060111434160704730B500232A
:10313000064CA14207D00B0C046C9D0002FA05F569
:103140002C43046400E0426430BD0000000108002C
:1031500021B1426842F00102426003E0426822F07D
:103160000102426070470246002093680B400BB199
:10317000012000E00020704730B502460B460021D8
:10318000116E054800EA11200D0E0124AC402043C9
:10319000186008B230BD00000000FFFF1AB10368DC
:1031A0000B43036002E003688B430360704721B167
:1031B000026842F00042026003E0026822F000422E
:1031C000026070478AB24261704721B1426842F0A2
:1031D0002002426003E0426822F020024260704711
:1031E000416841F4004141607047416841F010017D
:1031F000416070470146034A106820F4407008435C
:10320000106070470060014010B50B48008900F065
:10321000010080B109480078632804D0074800788D
:10322000401C06490870002000F00CF80449034ACD
:10323000127821F8120010BD00300140D0010020AA
:103240001005002070B505460024024800F032F851
:1032500070BD00000030014010B50E48008800F03D
:103260000100B0B14FF400614FF09040FFF703F858
:1032700009480078632804D007480078401C0649B4
:103280000870002000F00CF80449034A127821F875
:10329000120010BD08380040D001002010050020A9
:1032A00070B505460024024800F004F870BD000027
:1032B00000380040014688897047704730B50022C9
:1032C0008B071C0F0F2303FA04F20B4B8C1053F8DF
:1032D00024309343084C8D1044F8253023468C103D
:1032E00053F824308C07240F00FA04F42343024CD3
:1032F0008D1044F8253030BD080001400CB5002089
:10330000019000902C48006840F480302A49086001
:1033100000BF2948006800F4003000900198401C6C
:103320000190009818B90198B0F5A06FF1D122482A
:10333000006800F4003010B10120009001E000208E
:1033400000900098012836D102201C4908601A48D4
:103350004068194948600846406848600846406827
:1033600040F4806048600846406820F47C10486063
:103370000846406840F4A81048600846006840F0DD
:103380008070086000BF0C48006800F000700028E2
:10339000F9D00948406820F0030007494860084612
:1033A000406840F00200486000BF0348406800F0F9
:1033B0000C000828F9D10CBD00100240002002408A
:1033C00010B5002208210248FEF757FF10BD00008B
:1033D0000010004810B5012208210248FEF74DFFF9
:1033E00010BD00000010004810B500224FF400513D
:1033F0000148FEF742FF10BD0010004810B5012241
:1034000051030248FEF739FF10BD000000100048CC
:1034100010B500224FF480410148FEF72EFF10BD89
:10342000000C004810B5002201214FF09040FEF73B
:1034300024FF10BD10B5012211464FF09040FEF759
:103440001CFF10BD10B500224FF400410448FEF7E8
:1034500014FF00224FF480410248FEF70EFF10BD1A
:1034600000100048000C004810B50122D1030448A8
:10347000FEF703FF012291030248FEF7FEFE10BD96
:1034800000100048000C004810B50022042102483A
:10349000FEF7F3FE10BD00000010004810B5012239
:1034A00004210248FEF7E9FE10BD000000100048AC
:1034B00010B500224FF480410148FEF7DEFE10BD3A
:1034C0000010004810B5012291030248FEF7D5FE16
:1034D00010BD00000010004810B500221021024865
:1034E000FEF7CBFE10BD00000010004810B5012211
:1034F00010210248FEF7C1FE10BD00000010004878
:1035000010B500224FF400510148FEF7B6FE10BD81
:10351000000C004810B5012251030248FEF7ADFE31
:1035200010BD0000000C004810B500F015FA10BDE9
:1035300010B51B48006840F470001949086019482C
:10354000006840F00100174908600846406800F430
:103550007F00486008460068134908401149086028
:103560000846006820F4802008600846406820F47F
:10357000FE0048600846C06A20F00F00C862084696
:10358000006B0A4908400749086300208860FFF77C
:10359000B5FE4FF0006002498039086010BD0000A0
:1035A00088ED00E000100240FFFFF6FE8C0FFF0FD9
:1035B00010B50221480700F002F950B10120054979
:1035C00008700221800700F020F80121880700F030
:1035D00019F810BDBC0100207047000010B5022191
:1035E000074800F0ECF848B101F03AF8022104482D
:1035F00000F00BF80121024800F004F810BD0000B3
:10360000000C0040CA4302827047CA4302827047DE
:1036100021B1028842F00102028004E002884FF6E4
:10362000FE731A400280704710B50446B4F1804F13
:1036300008D101210846FFF77BF800210120FFF7A0
:1036400077F89EE04F48844208D101210220FFF71D
:103650006FF800210220FFF76BF892E04A4884429D
:1036600008D101210420FFF763F800210420FFF7AF
:103670005FF886E04548844208D101210820FFF721
:1036800057F800210820FFF753F87AE040488442B9
:1036900008D101211020FFF74BF800211020FFF77F
:1036A00047F86EE03B48844208D101212020FFF713
:1036B0003FF800212020FFF73BF862E036488442C3
:1036C00008D101214020FFF733F800214020FFF707
:1036D0002FF856E03148844208D101218020FFF7BD
:1036E00027F800218020FFF723F84AE02C48844285
:1036F00008D101218015FFF71BF80021A015FFF765
:1037000017F83EE02748844209D101210804FFF759
:103710002FF800214FF48030FFF72AF831E02248DB
:10372000844209D101214804FFF722F800214FF417
:103730000030FFF71DF824E01C48844209D1012124
:103740008804FFF715F800214FF48020FFF710F8E8
:1037500017E01748844208D101214015FEF7E8FF21
:1037600000216015FEF7E4FF0BE01248844208D107
:103770000121C804FEF7FCFF00214FF40020FEF7F2
:10378000F7FF10BD0004004000080040000C00409E
:10379000001000400014004000180040001C0040D1
:1037A000002000400040014000440140004801402A
:1037B000009C0040005C01400146486A704730B5FB
:1037C0000246002000230024158A05EA010395899A
:1037D00005EA010413B10CB1012000E0002030BD66
:1037E0001AB183890B43838102E083898B438381F0
:1037F0007047000000220288B0F1804F0BD0194BB7
:10380000984208D0184B984205D0184B984202D0E5
:10381000174B984204D14FF68F731A404B881A43C6
:10382000144B98420AD0144B984207D0134B98423D
:1038300004D04FF6FF431A400B891A4302804B68AD
:10384000C3620B8803850E4B984205D00D4B9842FE
:1038500002D00D4B984201D18B7A038601238382DB
:10386000704700000004004000080040000C0040C9
:10387000005C01400010004000140040009C00402B
:103880000040014000440140004801401FB50121B3
:103890000920FEF73DFF4FF08040FFF7C5FE2820CE
:1038A000019040F29F50ADF800000020ADF80800F4
:1038B000ADF8020069464FF08040FFF79BFF012101
:1038C0008807FFF79FFE012202214807FFF788FFC4
:1038D00001218807FFF79CFE1C208DF80C000120B9
:1038E0008DF80D0000208DF80E0001208DF80F00DE
:1038F00003A8FEF73BFE1748FFF796FE0420019051
:1039000040F29F50ADF800000020ADF80800ADF87F
:10391000020069460F48FFF76DFF01210D48FFF7D0
:1039200071FE012202210B48FFF75AFF01210948CD
:10393000FFF76EFE32208DF80C0002208DF80D008E
:1039400001208DF80E008DF80F0003A8FEF70EFE83
:103950001FBD0000000C00400448006820B103486F
:103960000068401E01490860704700000000002008
:1039700010B53249324800F085F800284FD044F69F
:103980002060304908602D492D4800F069F82C4826
:1039900000F09DF8C4B22C48007830B9072C01D053
:1039A000092C02D1012029490870284800780128F3
:1039B00035D1234800F08BF82549234A12788854E2
:1039C00008464078102807D11F480078062803D100
:1039D0000D20204908700EE01D484078032803D1CF
:1039E00008201C49087006E019484078062802D1D2
:1039F00008201849087014480078401C12490870C3
:103A0000084600781349097890FBF1F201FB120097
:103A100028B901201049087000200B4908700821BE
:103A2000074800F026F8012806D10821044800F0D4
:103A300015F8034800F04BF810BD00000501050023
:103A400000480040C0010020B8010020BA01002059
:103A5000D4030020BB010020BD010020016270479B
:103A600010B5002200230A0C012404FA02F30362B9
:103A700010BD02460020D3690B400BB1012000E0CD
:103A80000020704770B502460B4600240021002537
:103A90000020C3F30725D9B2012606FA01F1012D52
:103AA00002D11668314006E0022D02D1566831403D
:103AB00001E0966831401C0C012606FA04F4D66930
:103AC000344011B10CB1012000E0002070BD01466E
:103AD000888CC0F3080070474A484178007801EBB1
:103AE0000020494908804748807800F00100474994
:103AF00008704449897801F08000C11700EB5161DA
:103B0000C911434A11703F49897801F04000C1173B
:103B100000EB916189113F4A11703A49897801F0AF
:103B20002000C11700EBD16149113B4A11703549A2
:103B3000897801F01000C11700EB11710911374AA3
:103B400011703049897801F00800C11700EB5171FC
:103B5000C910334A11702B48C0783249087029487F
:103B60000079314908702748407930490870254864
:103B700080792F4908802348C0792E4908702E4843
:103B80000078C0092D4908702B480078C0F38010D8
:103B90002B49087028480078C0F340102949087064
:103BA00025480078C0F300102749087022480078A3
:103BB000C0F3C000254908701F480078C0F380009A
:103BC000234908701C480078C0F340002149087060
:103BD0001948007800F001001F4908701648407825
:103BE000C0091E49087014484078C0F380101C4971
:103BF0000870114880781B4908701B4800781B49E1
:103C00000871704710000020060100200F010020FD
:103C10006600002067000020680000206900002086
:103C20006A000020160100200A0100200B0100207C
:103C3000080100200C010020180000206C0000206A
:103C40006D0000206E0000206F000020700000203A
:103C5000710000207200002073000020740000201A
:103C6000750000201B0100201C010020BA0000206C
:103C700070B50024154890F8276000250AE004EB91
:103C80008400134901EB8000C07B08B1012501E0ED
:103C9000601CC4B20DB9042CF1DB45B10B4890F89F
:103CA000270040F02000094981F8270007E0074875
:103CB00090F8270000F0DF00044981F8270003484E
:103CC00090F827103046FDF7F3FD70BDB8020020D4
:103CD0006802002000BFFEE770B504460E460025CE
:103CE000022C01DB322507E0044951F82400FDF7DE
:103CF000ABFC022800D03225284670BD7C01002094
:103D000070B504460E460025022C01DB322507E083
:103D1000044951F82400FDF797FC032800D0322510
:103D2000284670BD7C01002070B504460D46002673
:103D3000022C01DB32262AE0164951F82400FDF757
:103D400083FC012804D1134850F8240005701EE0BC
:103D5000104951F82400FDF777FC042808D10D48DC
:103D600050F82400A0F57E0000F5805005700EE0AC
:103D7000084951F82400FDF767FC38B9054951F8A6
:103D800024002946FDF744FF064600E0322630466F
:103D900070BD00007C010020F3B5264D2978AD7878
:103DA000254E06EB01167678224F7F7816FB0755D5
:103DB000A8B29DF804500DB9002501E0009DADB2F8
:103DC0001D4E06EB0116766826F810501A4E06EBCB
:103DD00001167678184F07EB01173F7816FB07F6A8
:103DE000154F07EB01177F6807EB46060546C71717
:103DF00000EB5777FF1006EB4702C61700EB56762D
:103E0000F610A0EBC6067606340E9DF80450032D7E
:103E100002DA9DF8043000E0032315880326A6404B
:103E2000B5431580158803FA04F6B6B235431580FC
:103E3000FCBD0000780100202848000802E008C806
:103E4000121F08C1002AFAD170477047002001E014
:103E500001C1121F002AFBD1704700002DED0A8B13
:103E600090B09FEDFE0A8DED030A9FEDFC0A8DEDEB
:103E7000020A9FEDFA0A8DED010A00BF0020F84901
:103E80000870F8490870F84908800120F74908705F
:103E9000F749087004A8FEF77BFC4FF47A72059886
:103EA000B0FBF2F1B1F1807F00D31DE021F07F4043
:103EB000401E4FF0E022506150170F22002807DA11
:103EC00013071D0EEB4B00F00F04241F1D5503E0DC
:103ED00013071C0EE84B1C5400BF00204FF0E022DB
:103EE00090610720106100BFFCF7B2FEFDF774FB84
:103EF000FFF7CCFCFEF7C8F90020E049088001205C
:103F0000DF490870DF490880FEF7F6FD18E3DE4858
:103F100000780128FAD1DD48FFF74EFCDC49086043
:103F20000020D9490870DB480088401CD949088026
:103F3000D9480078012802D00020D7490870D54818
:103F400000880A2190FBF1F201FB12000028DDD16C
:103F5000D0490880FFF7C0FDFDF7E0FECF480078AC
:103F6000CF49097888421BD00120CE490870CE483D
:103F70000078CA490978884209DDCB480078C749EA
:103F80000978401A00EB8000C849088008E0C3485F
:103F90000078C5490978401A00EB8000C3490880C1
:103FA000C048007818B3C148008808B3BF480088EB
:103FB000401EBE490880BC480078B849097888424C
:103FC0000ADA01220421BA48FEF757F90122110248
:103FD000B848FEF752F91DE001220421B448FEF76B
:103FE0004CF900224FF48071B248FEF746F911E017
:103FF00000220421AE48FEF740F900224FF4807100
:10400000AC48FEF73AF90020A6490870A3480078AA
:10401000A5490870A1480078A1490870A648007811
:10402000012804D197490880FCF792FBB0E0A3482F
:104030000078002870D10120924908808A480088C1
:10404000B0F5007F60D00EDC402875D005DCF8B1FB
:10405000102872D0202871D182E0802870D0B0F56D
:10406000807F6BD159E0B0F5005F26D009DCB0F558
:10407000806F3AD0B0F5006F2FD0B0F5805F7DD162
:1040800023E0B0F5804F11D0B0F5004F76D100E0BD
:104090007BE08148027804214FF09040FEF7EDF874
:1040A0007D48007808B9FCF753FB6EE07A48027847
:1040B00010218348FEF7E1F867E0774802784FF473
:1040C00000517C48FEF7D9F85FE07348027801217F
:1040D0004FF09040FEF7D1F857E06F4802784FF468
:1040E00080417448FEF7C9F84FE06B4802784FF4FE
:1040F00000417348FEF7C1F8674802784FF48041E9
:104100006C48FEF7BAF840E06348027802214FF0AD
:104110009040FEF7B2F838E038E05F4802780221BC
:104120004FF09040FEF7A9F85B4802784FF48051B9
:104130006048FEF7A2F828E00AE018E01EE0FFE77A
:10414000554802784FF480415D48FEF796F81CE030
:10415000514802784FF400515948FEF78EF814E0A8
:104160004D48027804215648FEF787F80DE04A488A
:10417000027808215248FEF780F806E00022042168
:104180004FF09040FEF779F800BF01E0FCF72CFB00
:1041900000F0EEF94B4800684B4908604B4890ED41
:1041A000000ADFED4B0A20EE200A10EE101A084636
:1041B000FCF79BF941EC190B9FED460B53EC102BD0
:1041C000FCF79FF841EC180BFCF7A2F94349086093
:1041D00043480068FCF789F941EC1B0B9FED410B4C
:1041E00053EC102BFCF793F841EC1A0B3B4800689A
:1041F000FCF77BF941EC1B0B9FED3C0B53EC102BB8
:10420000FCF785F841EC190B53EC1A2BFBF7D8FFA0
:1042100041EC180BFCF77CF930490860084600684F
:10422000FCF763F941EC190B32480068FCF75DF9C3
:1042300041EC1C0B9FED300B53EC102BFCF767F897
:1042400041EC1B0B9FED2E0B53EC102BFCF759F898
:1042500041EC1A0B53EC192B56E000000000000053
:10426000BD010020430000200601002017010020AE
:104270001601002018ED00E000E400E03A00002004
:10428000410000205E000020BC010020000400402E
:1042900020000020100100200F0100201B01002041
:1042A0001D0100201E0100201C010020140100201F
:1042B00000040048000C00486A000020660000204E
:1042C00000100048B0010020B4010020E4010020EB
:1042D000000080446666666666767C404400002086
:1042E00050000020666666666666EE3F9A99999968
:1042F0009999A93FDC01002000000000006E914068
:104300000000000000208640FBF75AFF41EC180B2C
:10431000FCF7FEF88B4908608B480068FCF7E5F86D
:1043200041EC1B0B1FED110B53EC102BFBF7EFFFB8
:1043300041EC1A0B83480068FCF7D7F841EC1B0BE3
:104340001FED160B53EC102BFBF7E1FF41EC180BA4
:1043500053EC1A2BFBF734FF41EC190BFCF7D8F8A0
:104360007849086079480068FCF7BFF841EC190B00
:1043700077480068FCF7B9F841EC1C0B1FED220BE5
:1043800053EC102BFBF7C3FF41EC1B0B1FED240B71
:1043900053EC102BFBF7B5FF41EC1A0B53EC192B28
:1043A000FBF70EFF41EC180BFCF7B2F86949086007
:1043B00069480068FCF799F841EC1B0B1FED370BBF
:1043C00053EC102BFBF7A3FF41EC180B614800687E
:1043D000FCF78BF841EC1B0B1FED3C0B53EC102B47
:1043E000FBF795FF41EC190B53EC182BFBF7E8FE9C
:1043F00041EC1A0BFCF78CF856490860534890EDD5
:10440000000ADFED560A20EE200ABCEEC00A10EECC
:10441000100A80B2642190FBF1F0514908714B48B9
:1044200090ED000ADFED4D0A20EE200ABCEEC00A36
:1044300010EE100A80B2642190FBF1F201FB120031
:10444000474948713F4890ED000ADFED440A20EEED
:10445000200ABCEEC00A10EE100A80B2642190FB64
:10446000F1F03F498871374890ED000ADFED3B0AD3
:1044700020EE200ABCEEC00A10EE100A80B26421C1
:1044800090FBF1F201FB12003549C871314890ED03
:10449000000ADFED320A20EE200ABCEEC00A10EE60
:1044A000100A80B2642190FBF1F02E49087029486F
:1044B00090ED000ADFED290A20EE200ABCEEC00ACA
:1044C00010EE100A80B2642190FBF1F201FB1200A1
:1044D00024494870244890ED000ADFED200A20EEC0
:1044E000200ABCEEC00A10EE100A80B2642190FBD4
:1044F000F1F01C4988701C4890ED000ADFED170AA6
:1045000020EE200ABCEEC00A10EE100A80B2642130
:1045100090FBF1F201FB12001249C8700B4890EDBC
:10452000000A124880ED000A0A4890ED000A0A4885
:1045300080ED000A034890ED000A034880ED000A70
:10454000E5E4000048000020540000204400002062
:10455000E00100204C000020580000200000C8426C
:10456000B2000020BA000020E80100205000002026
:1045700010B54FF480513648FDF769FEC4014FF481
:1045800000613448FDF763FE04EB801408214FF00E
:104590009040FDF75CFE04EB401420212C48FDF711
:1045A00056FE04EB001410212948FDF759FE04EBD8
:1045B000C00404214FF09040FDF752FE04EB80044C
:1045C00004212348FDF74CFE04EB40044FF48041E6
:1045D0001F48FDF745FE20441F49087008211C486C
:1045E000FDF73EFEC4014FF400511948FDF738FEB7
:1045F00004EB80144FF480411648FDF731FE04EBC4
:10460000401401214FF09040FDF72AFE04EB001406
:104610004FF400510F48FDF723FE04EBC0040221C4
:104620004FF09040FDF71CFE04EB80044FF48051E6
:104630000848FDF715FE04EB4000074948700420C8
:10464000FCF7A2FA05490720FCF79EFA10BD00000E
:1046500000100048000C0048B2000020BA00002002
:1046600010B54548C07A64280CDA4348C07A4349FB
:104670000988884206D04048C07A414908706420C1
:10468000404908703C48C07A3D490978884209D1C0
:104690003B480078401E3A49087020213A48FDF70F
:1046A000EAFD0FE03648007828B135480078401E12
:1046B0003349087006E03248007818B920213248A2
:1046C000FDF7D7FD2F48007838B964202D490870D0
:1046D0002948C07A2A49087004E02A480078401E18
:1046E000284908702448C07A244908802248007B61
:1046F00064280CDA2048C07A24490988884206D008
:104700001D48007B224908706420224908701A481D
:10471000007B1F490978884209D11D480078401E56
:104720001B49087040211848FDF7A5FD0FE0184807
:10473000007828B116480078401E1549087006E038
:104740001348007818B940210F48FDF792FD114831
:10475000007838B964200F4908700748007B0C497D
:10476000087004E00B480078401E0A4908700248AF
:10477000C07A0649088010BDD40400200201002040
:10478000190100201A01002000100048000100203B
:104790001F01002020010020951300089913000834
:1047A00029180008A1140008351B000895130008FB
:1047B00041190008111400081D1A0008E51400082A
:1047C00095130008951300083D180008B51500085A
:1047D0009912000801190008E5120008F9170008ED
:1047E000C9150008251B0008091500080118000854
:1047F0007D1B0008C114000809170008B116000845
:1048000095130008F5140008951300089513000887
:1048100095130008951300089513000895130008D8
:104820001D170008B514000802070000E40200206C
:104830001402002001000000020700000403002011
:1048400022020020010000000407000024030020D1
:104850003002002001000000040700006403002073
:104860004C02002001000000030006000C001800AC
:1048700030006000C000800100030006000C00183A
:104880000030006000C000000400000008000000CC
:10489000000000000102000000000000070000000E
:1048A00008000000000000000102000000000000FD
:1048B00008000000080000000000000001020000E5
:1048C00000000000090000000800000000000000D7
:1048D0000102000000000000F407000008000000D2
:1048E000000000000102000000000000F5070000C9
:1048F00008000000000000000102000000000000AD
:10490000F60700000800000000000000010200009F
:1049100000000000F7070000080000000000000091
:104920000102000000000000F8070000080000007D
:10493000000000000102000000000000F00700007D
:104940000800000000000000010201006C4900089E
:1049500000000020F0010000F8060008E04900080F
:10496000F0010020E80700004C3E000841031EFF54
:10497000FF02F5047A640618186666263F3333335F
:104980003FCDCC4C3F6666663F4A0C823F3D0A975E
:10499000043017B73F9A99D93F48E11A407B140E6B
:1049A000C0C3F5E8BF7B148EBF290411180CC3F5F2
:1049B000A83E1F852B3FD7A370040321B03F2D01D4
:1049C0000203040428090607080902040608045023
:1049D0000D0A0C0E1014181C2024282C30023D80C7
:040000050800018965
:00000001FF
